:400000000080002049020000614900006149000061490000614900006149000061490000614900006149000061490000614900006149000061490000614900006149000089
:4000400061490000614900006149000061490000614900006149000061490000614900006149000061490000614900006149000061490000614900006149000061490000E0
:4000800061490000614900006149000061490000614900006149000061490000614900006149000061490000614900006149000061490000614900006149000061490000A0
:4000C00080B51448144B21E05C689968DD688C420CD0002205E0A6180832D6E9008941E902898C460831AA42F5D101E004EB050C1C696146002204E008320026002741E9DE
:4001000002670831A242F7D1143301380028DBD104F00EFC01000000204D000048F24013C1F6FF731A780AB901201870704700BF48F20010C1F6FF7008B503682BB140F2E1
:400140000003C0F2000303B1984708BD80B582B000AF4FF00003FB8000F046F800F044FF00F074FA0346002B2DD100F069F90346002B31D14FF00003FB800CE04FF00100BA
:4001800000F0D0F800F05CF90346002B07D1FB8803F10103FB80FB88642BEFD900E000BFFB88632B1AD944F2FA63C4F200034FF040021A7047F2305000F0A8FF43F69820EB
:4001C00000F0B4FF0BE041F2883000F09FFF40F6C41000F0ABFF02E000BF00E000BF00F061FF00F08FF9FEE780B582B000AF48F21813C1F6FF731B681B684FF0000019461F
:4002000000F05CF90346FB7148F21413C1F6FF731B681B78FA79C3EB0203FB71FB79C3F10003DBB2FB7148F21413C1F6FF731B681B78FA799A4203D04FF0000000F066F81F
:4002400007F10807BD4680BD064B1C7844F001041C70054B1A78D2B2044B1A7000F0C8F9FFF72EFFE8460040FA460040BC76004080B582B000AF4EF60C53CEF2000340F26C
:400280000042C0F2FA521A604EF61453CEF200034EF61452CEF20002126842F400721A604FF000037B6014E07A687B684FEA830140F20003C0F200030B441B68194648F226
:4002C0000003C1F6FF7343F822107B6803F101037B607B682F2BE7D947F2BC63C4F200031B78DAB248F25013C1F6FF731A704EF60853CEF2000348F20002C1F6FF721A60F2
:4003000001F054F807F10807BD4680BD80B483B000AF0346FB7101BE07F10C07BD4680BC704700BF80B582B000AF78600BE048F21013C1F6FF731B68184601F009F97B68D9
:40034000A3F500437B607B68B3F5004FEFD848F20813C1F6FF731B687A6802FB03F3184601F0F6F807F10807BD4680BD80B582B000AF0346FB80FA8848F20C13C1F6FF73EE
:400380001B7803FB02F3184601F0E2F807F10807BD4680BD80B584B000AF03463960FB714EF60853CEF200031B68FB60FB791F2B03D94FF00000FFF7A9FFFB7903F01F03A1
:4003C00003F110034FEA8302FB6813441B68BB60FB7903F01F0303F110034FEA8302FB6813443A681A60BB68184607F11007BD4680BD00BF80B582B000AF02460B46FA7113
:40040000BB71BB79072B03D94FF00000FFF77EFFFB791F2B03D94FF00000FFF777FFFB7903F01F0303F1604303F56443BA794FEA4212D2B21A7007F10807BD4680BD00BFC4
:4004400080B400AF45F22113C4F200031B78DBB203F010034FEA1313DBB21846BD4680BC704700BF80B485B000AF78600B467B804FF00003FB8109E07B681B781A46FB8913
:400480001344FB817B6803F101037B607B88002B0CBF00230123DBB27A8802F1FF327A80002BE9D1FB89C3F100039BB29BB2184607F11407BD4680BC704700BF80B485B07D
:4004C00000AF786039604FF00003FB7306E07A683B6813441A78FB7B1344FB733B68002B0CBF00230123DBB23A6802F1FF323A60002BECD1FB7B184607F11407BD4680BCC2
:40050000704700BF80B582B000AF48F21813C1F6FF731B681B684FF000001946FFF7CEFF0346FB7148F21413C1F6FF731B681B78FA79C3EB0203FB71FB79C3F10003DBB29B
:40054000FB7148F21413C1F6FF731B681B78FA799A4215D148F21813C1F6FF731B681B68002B0DD001F04CF80346002B08D148F25410C1F6FF7001F057F80346002B03D0D1
:400580004FF00000FFF7C2FE00F060F80346002B09D144F2FA63C4F200031B78DBB203F0C003402B0AD144F2FA63C4F200034FF000021A704FF0000000F0CCF800F004F852
:4005C00007F10807BD4680BD80B400AF44F2FA63C4F200036FF07F021A7044F2F663C4F200034FF001021A70BD4680BC704700BF80B500AF44F2FA63C4F200031B78DBB202
:4006000003F0C003802B15D144F2FA63C4F200034FF000021A704FF6C173C0F203031B68002B07D04FF6C173C0F203031B68184600F002F880BD00BF014648F25013C1F613
:40064000FF731B781A461268084700BF80B485B000AF4FF6C573C0F203031B8803F101034FEA03231A464FF6C973C0F203031B681344BB604FF000037B734FF00003BB7318
:400680004FF6C573C0F203031B8803F101034FEA03237B6013E07B681B78FB73FB7B002B05D0FB7BFF2B02D04FF001037B73BA7BFB7B1344BB737B6803F101037B607A6878
:4006C000BB689A42E7D34FF6C573C0F203031B8803F101034FEA03234FEAD3037B60BA684FF6C073C0F203039A4203D0BB684FEAD30301E04FF40043BB600BE07B6803F1B1
:4007000090431B78DAB2BB7B1344BB737B6803F101037B607A68BB689A42EFD3BB7BC3F10003DBB2BB734FF6C073C0F203031B78BA7B9A4202D17B7B002B02D14FF0060328
:4007400001E04FF00003184607F11407BD4680BC704700BF80B5ADF56C7D00AF024607F1080303F1FF331A704FF00003A7F898334FF00003A7F89A334FF0000387F89D33DB
:4007800007F1080303F1FF331B78002B14BF0023012387F89E3307F1080303F1FF331B78002B06D107F1080303F1FF334FF0FF321A7000F007FB62B64FF0000387F8913378
:4007C00007F5187107F5637207F1080303F1FF331B7808464FF4967100F062FB0346C7F89433D7F89433102B00F08882D7F89433052B00F08582B7F88C33062B04D907F533
:4008000018731B78012B04D04FF0040387F891333FE007F5187303F102031B88A7F89833B7F8983303F1040207F5187313441B88A7F89233B7F8983303F10702B7F88C3327
:400840009A4204D94FF0030387F8913321E0B7F8983303F1060307F51872D35C172B04D04FF0040387F8913313E0B7F8983303F104039BB207F5187210461946FFF7F2FD96
:400880000346B7F892239A4203D04FF0080387F891334FF00003A7F88E3397F89133002B40F0208207F518731B7987F89F334FF0040387F8913307F518735B78A3F1310346
:4008C0000A2B00F2F78101A252F823F0F908000033090000B50C0000B7090000C10A0000B50C0000CB0A0000190B0000E30900006B0B00008D0C000097F89E33002B00F0A0
:40090000DE81B7F89833002B40F0DB814FF00103A7F88E33FFF79AFE0346002B14BF0022012207F518731A714FF0000387F89133D8E197F89E33002B00F0C581B7F89833DF
:40094000012B40F0C28197F89F33032B2AD897F89F33002B09D148F21813C1F6FF731B681B684FEA13239BB201E04FF00003A7F8A033B7F8A033DAB207F518731A71B7F82D
:40098000A0334FEA13239BB2DAB207F518735A7107F518734FF0FF329A7107F518734FF00302DA714FF00403A7F88E334FF0000387F8913396E197F89E33002B04D0B7F802
:4009C0009833032B40F083814FF49073A7F89A3307F59A7318464FF000014FF4907203F03DFF97F89E33002B00F07381B7F89833022B40F27081B7F89A2307F59A731344F8
:400A0000B7F89823A2F1030207F5187101F10701184603F05BFEB7F89823B7F89A3313449BB2A3F10303A7F89A334FF49073A7F89833B7F89A23B7F898339A4237D107F585
:400A4000187303F105031B88A7F89A3397F89D33002B17D107F10C0318464FF000014FF4907203F0FBFE07F10C034FF003004FF0FF011A464FF4907300F0FEFD4FF001033C
:400A800087F89D3397F89F03B7F89A1307F59A72B7F8983300F0F0FD0346002B02D04FF00A0301E04FF0000387F8913303E04FF0030387F891334FF00003A7F89A3311E1F8
:400AC0004FF00003A7F89A331BE1B7F89A23B7F898331344B3F5967F19D84FF0000387F89133B7F89A2307F59A731344B7F8982307F5187101F10401184603F0E7FDB7F846
:400B00009A23B7F898331344A7F89A33EAE04FF0030387F89133E5E0B7F89833002B40F0DC8007F5967244F6BC13C0F2000393E8030082E803004FF0010387F89E334FF0F4
:400B40000803A7F88E33B7F88E3307F5187202F1040107F59672084611461A4603F0B6FD4FF0000387F89133BCE097F89E33002B00F0B580B7F89833032B40F0B28007F596
:400B8000187303F105031B88A7F8A23397F89F334FEA0322B7F8A23313444FEA0323C7F8A433D7F8A4034FF48071FFF787FC034687F8AB3397F89F334FEA03434FEAD30251
:400BC000B7F8A2334FEA4313134403F19043C7F8A4334FF00003A7F8AC3311E0B7F8AC23D7F8A43313441B78DAB297F8AB33134487F8AB33B7F8AC3303F10103A7F8AC33BE
:400C0000B7F8AC331F2BE9D997F89F33032B2BD1B7F8A233FF2B27D1B7F8A23303F00103DBB2002B02D04FF0000301E04FF0010387F8AF3397F8AF33C3F580634FEA0323B2
:400C4000A3F130031B7897F8AB23C3EB020387F8AB334FF6D173C0F203031B7897F8AB23C3EB020387F8AB3397F8AB33C3F10003DBB2DAB207F518731A714FF0000387F85C
:400C800091334FF00103A7F88E332BE0FFF7DEFC0346002B06D144F2FA63C4F200036FF07F021A7044F2F663C4F200034FF001021A7026E04FF0050387F8913312E000BF9C
:400CC00010E000BF0EE000BF0CE000BF0AE000BF08E000BF06E000BF04E000BF02E000BF00E000BF97F8911307F51872B7F88E33084611461A4600F00DF802E000BF00E071
:400D000000BF97F89E33002B7FF456AD07F56C77BD4680BD80B586B000AFB96013460246FA73FB80BB684FF001021A70BB6803F10103FA7B1A70BB6803F10203FA88D2B2ED
:400D40001A70BB6803F10303FA884FEA122292B2D2B21A70FB8803F104039BB2B8681946FFF780FB0346FB82FB8803F10402BB681344FA8AD2B21A70FB8803F10502BB68E0
:400D80001344FA8A4FEA122292B2D2B21A70FB8803F10602BB6813444FF017021A70FB8803F107039AB207F10603B86811461A464FF0960300F020F80346184607F118077B
:400DC000BD4680BD80B500AF62B64FF000004FF0020100F0C5FE48F24413C1F6FF734FF001021A7080BD00BF80B500AF4FF0010001F05AFA80BD00BF80B586B000AFF8602A
:400E00007A600A467A81FB704FF00200F9684FF0400201F051F9FB781A464FEA820213444FEA43039AB248F24213C1F6FF731A804FF000037B8203E04FF00100FFF772FAFC
:400E40004FF0020001F0E6F80346002B10D148F24213C1F6FF731B887A8A9A422CBF00230123DBB27A8A02F101027A82002BE3D14FF0020001F0CEF80346002B03D14FF0BF
:400E800010037B6105E07B687A891A804FF000037B617B69184607F11807BD4680BD00BF80B586B000AFF8607A600A467A81FB707B89402B02D94FF040037B81FB781A46CB
:400EC0004FEA820213444FEA43039AB248F24213C1F6FF731A804FF00003FB8248F24413C1F6FF731B78002B2BD003E04FF00100FFF718FA01F060F80346002B10D148F28C
:400F00004213C1F6FF731B88FA8A9A422CBF00230123DBB2FA8A02F10102FA82002BE5D101F04AF80346002B1DD001F051F8FFF75BFF48F24413C1F6FF734FF000021A70F7
:400F400016E001F045F80346002B0ED001F034F80346002B0BD0FFF747FF09E04FF00100FFF7E0F904E000BF02E000BF00E000BF4FF0010001F04EF80346012B10D048F272
:400F80004213C1F6FF731B88FA8A9A422CBF00230123DBB2FA8A02F10102FA82002BDDD14FF0010001F036F80346012B0ED17B894FF00100F9681A4601F02AF903461A46AD
:400FC0007B681A804FF000033B6106E07B684FF000021A804FF010033B613B69184607F11807BD4680BD00BF80B582B000AF46F27553C4F200031B78DBB223F03F03BB717C
:4010000046F27553C4F20003BA7942F00B02D2B21A7046F29453C4F2000346F29452C4F200021278D2B242F00102D2B21A7046F29553C4F2000346F29552C4F2000212783E
:40104000D2B242F00102D2B21A704EF6602000F03FF84EF6602000F059F847F2305000F065F84FF0000000F071F800F079FA0346FB7146F29453C4F2000346F29452C4F257
:4010800000021278D2B242F01002D2B21A70FB79184600F069FA00F02BF807F10807BD4680BD00BF80B400AF46F27553C4F2000346F27552C4F200021278D2B26FEA426232
:4010C0006FEA5262D2B21A70BD4680BC704700BF80B483B000AF0346FB8046F60823C4F20003FA881A8007F10C07BD4680BC704780B500AF01E000F049F800F037F80346AB
:4011000003F01003002BF6D180BD00BF80B483B000AF0346FB8046F68823C4F20003FA881A8007F10C07BD4680BC704780B483B000AF0346FB8046F64823C4F20003FA8868
:401140001A8007F10C07BD4680BC704780B483B000AF0346FB7146F28453C4F20003FA791A7007F10C07BD4680BC704780B483B000AF46F26453C4F200031B78FB71FB7912
:40118000184607F10C07BD4680BC704780B400AF46F6A823C4F200031B889BB21846BD4680BC704780B582B000AF7860396078684FF000013A6803F051FB07F10807BD4657
:4011C00080BD00BF80B584B000AFF860B9607A60F868B9687A6803F079FA07F11007BD4680BD00BF80B584B000AFF860B9607A60F868B9687A6803F069FA07F11007BD468B
:4012000080BD00BF80B487B000AF786039604FF00003FB604FF00003BB602CE0BB684FEA83027B6813441B683B613B69FB753B6923F0FF033B6117E0FB684FEA43023B6803
:4012400013441B781A463B691344FA684FEA42013A680A4452781A70FB6803F10103FB60FB7D03F1FF33FB75FB7D002BE4D1BB6803F10103BB60BB68102BCFD907F11C0794
:40128000BD4680BC704700BF80B400AF44F28003C4F200034FF003021A8044F28203C4F200034FF01B021A7044F20033C4F200034FF006021A7044F20023C4F200034FF0A8
:4012C00052021A7044F2A163C4F2000340F20F12C4F600121278D2B21A7044F20403C4F200034FF000021A8044F20403C4F200034FF007021A7044F20603C4F200034FF096
:4013000000021A7044F20803C4F200034FF048021A7044F20403C4F200034FF000021A7044F20903C4F200034FF000021A7044F20103C4F200034FF002021A7044F2A233C2
:40134000C4F2000344F2A232C4F200021278D2B242F00102D2B21A70BD4680BC704700BF80B483B000AF40F2CF13C4F600131B78FB7145F66E03C4F20003FA7902F0070223
:401380001A7045F66F03C4F20003FA794FEA1212D2B21A7045F67603C4F200034FF044021A7007F10C07BD4680BC704780B582B000AF72B64FF00003FB702FE0FA7813461D
:4013C0004FEA430313444FEA43031A4644F6C413C0F2000313447B607B681A7859784FEA012141EA020299784FEA014141EA0202DB784FEA036343EA02031A467B681979BC
:401400005B794FEA032343EA01039BB210461946FFF7C8FEFB7803F10103FB70FB78072BCCD944F6F410C0F2000044F63821C0F20001FFF7E7FE45F20303C4F2010345F22B
:401440000302C4F201021278D2B242F00202D2B21A7045F21303C4F2010345F21302C4F201021278D2B242F00202D2B21A7044F2A033C4F2000344F2A032C4F200021278F2
:40148000D2B242F04002D2B21A7044F2C233C4F2000344F2C232C4F200021278D2B242F01002D2B21A7045F2F010C4F2000044F62831C0F200014FF00A02FFF793FE45F2C4
:4014C0002010C4F2000044F63431C0F200014FF00A02FFF787FE45F23210C4F2000044F64031C0F200014FF00802FFF77BFE44F22233C4F2000344F22232C4F20002127899
:40150000D2B242F00802D2B21A7044F60003C4F200034FF001021A70FFF7B6FE44F60003C4F200036FF07E021A70FFF719FF44F2B030C4F2000044F2A031C4F200014FF03B
:401540000E02FFF73FFE07F10807BD4680BD00BF0230800803D000BF01380046FCD17047EFF3108072B6704780F31088704700BF80B582B000AF00F011F94FF0FF337B60A5
:4015800000F074FA0346002B31D14FF0010000F027FA0346072B27D148F27420C1F6FF704FF0020100F026F90346022B12D14FF000037B6003E04FF00100FEF7D7FE44F2B5
:4015C0002273C4F200031B78DBB203F00203002BF1D009E044F22273C4F200031B78DBB203F00203002BD7D000F086FA02E04FF004037B607B68184607F10807BD4680BD47
:4016000080B582B000AFFFF7B3FF03467B607B68002B03D1FFF7ACFF03467B607B68184607F10807BD4680BD80B584B000AF78604FF00003FB6000F0B1F87B68002B03D191
:401640004FF00103FB6010E000F010FA0346002B03D04FF00403FB6007E048F24813C1F6FF737A681A6000F047FAFB68184607F11007BD4680BD00BF80B586B000AFBA60C5
:401680000246FA730A46BA81FB8000F0EFF90346002B7AD1FA7BFB881046B9681A4600F0DBF803467B617B69072B6BD103E04FF00100FEF75BFE44F22273C4F200031B7847
:4016C000DBB203F00203002BF1D044F22273C4F200031B78DBB203F00203002B0ED044F22273C4F200031B78DBB24FEA9303DBB2002B03D14FF000037B6102E04FF0FF3364
:401700007B617B69002B3DD148F27423C1F6FF731A7848F27423C1F6FF735B78F87BB98900F0F8F803467B617B69072B2AD103E04FF00100FEF71AFE44F22273C4F20003D8
:401740001B78DBB203F00203002BF1D044F22273C4F200031B78DBB203F00203002B0ED044F22273C4F200031B78DBB24FEA9303DBB2002B03D14FF000037B6102E04FF082
:40178000FF337B6100F0B8F902E04FF004037B617B69184607F11807BD4680BD80B582B000AFFFF7DDFE0346FB7144F2A033C4F2000344F2A032C4F200021278D2B242F07F
:4017C0000802D2B21A7044F2B033C4F2000344F2B032C4F200021278D2B242F00802D2B21A70FB791846FFF7BFFE07F10807BD4680BD00BF80B584B000AF78600B46FB70A0
:401800004FF00003FB731DE04FF00100FEF7AEFD00E000BF44F22273C4F200031B78DBB203F00103002BEFD0FA7B7B681A4444F22073C4F200031B78DBB21370FB7B03F1B2
:401840000103FB73FA7BFB789A42E2D3FB7B184607F11007BD4680BD80B487B000AFB96013460246FA73FB804FF007033B6144F22273C4F200031B78DBB203F00203002BF2
:401880003ED044F22073C4F200036FF049021A7044F22073C4F200036FF02A021A7044F22073C4F200034FF002021A7044F22273C4F200031B78DBB203F00203002B1BD1CB
:4018C00044F22073C4F20003FA7B1A704FF00003FB820CE044F22073C4F20003F98ABA680A4412781A70FB8A03F10103FB82FA8AFB889A42EED306E04FF009033B6102E0E6
:401900004FF004033B613B69184607F11C07BD4680BC704780B485B000AFF871B980FA70BB704FF00703FB6044F22273C4F200031B78DBB203F00203002B46D044F2207319
:40194000C4F200036FF049021A7044F22073C4F200036FF027021A7044F22073C4F200034FF005021A7044F22273C4F200031B78DBB203F00203002B23D144F22073C4F25A
:401980000003FA791A7044F22073C4F20003BA884FEA122292B2D2B21A7044F22073C4F20003BA88D2B21A7044F22073C4F20003FA781A7044F22073C4F20003BA781A7016
:4019C00006E04FF00903FB6002E04FF00403FB60FB68184607F11407BD4680BC704700BF80B485B000AF0346FB714FF00703FB6044F22273C4F200031B78DBB203F0020342
:401A0000002B29D044F22073C4F200036FF049021A7044F22073C4F200036FF01E021A7044F22073C4F200034FF00E021A7044F22273C4F200031B78DBB203F00203002B1F
:401A400006D144F22073C4F20003FA791A7006E04FF00903FB6002E04FF00403FB60FB68184607F11407BD4680BC704780B582B000AF4FF004033B60FFF772FD0346FB7126
:401A800048F24C13C1F6FF731B78002B29D148F24C13C1F6FF734FF001021A704FF000033B6040F20403C4F208031B6803F00103DBB2002B15D040F20403C4F2080340F204
:401AC0000402C4F20802126822F001021A6000BF00BF00BF48F24D13C1F6FF734FF001021A70FB791846FFF73FFD3B68184607F10807BD4680BD00BF80B582B000AFFFF734
:401B00002FFD0346FB7148F24C13C1F6FF734FF000021A7048F24D13C1F6FF731B78012B15D140F20403C4F2080340F20402C4F20802126842F001021A6000BF00BF00BF77
:401B400048F24D13C1F6FF734FF000021A70FB791846FFF709FD07F10807BD4680BD00BF80B582B000AF02460B46FA71BB7148F24E13C1F6FF731B78002B08D100F012F868
:401B800048F24E13C1F6FF734FF001021A70FA79BB791046194600F00DF907F10807BD4680BD00BF80B582B000AFFFF7D9FC0346FB7144F2A533C4F2000344F2A532C4F21D
:401BC00000021278D2B242F00102D2B21A7044F2B533C4F2000344F2B532C4F200021278D2B242F00102D2B21A7046F29D03C4F200034FF001021A7046F20903C4F200033B
:401C00004FF002021A7046F21003C4F2000346F21002C4F200021278D2B202F07F021A704FF00000FEF7A2FB44F29433C4F2000344F29432C4F200021278D2B202F0F90290
:401C40001A7046F21203C4F2000346F21202C4F200021278D2B202F0DF021A7044F29433C4F2000344F29432C4F200021278D2B242F00102D2B21A704FF00100FEF776FB04
:401C80004FF02800FEF772FB45F2F813C4F2000345F2F812C4F200021278D2B202F07F021A7045F2F813C4F2000345F2F812C4F200021278D2B202F0BF021A7044F2943320
:401CC000C4F2000344F29432C4F200021278D2B242F00202D2B21A704FF00200FEF746FB44F29433C4F2000344F29432C4F200021278D2B242F00402D2B21A7046F2840331
:401D0000C4F200034FF000021A7046F28503C4F200034FF000021A70FB791846FFF724FC4FF0170042F65D41C0F20001FEF732FB4FF017004FF00701FEF75CFB4FF01500B5
:401D400042F65141C0F20001FEF724FB4FF015004FF00701FEF74EFB4FF0180042F22131C0F20001FEF716FB4FF018004FF00701FEF740FB4FF0000042F67131C0F20001C9
:401D8000FEF708FB4FF000004FF00701FEF732FB4FF0010042F6E131C0F20001FEF7FAFA4FF001004FF00701FEF724FB07F10807BD4680BD80B584B000AF02460B46FA715F
:401DC000BB714FF00003FB730BE0FA7B48F21833C1F6FF734FF001019954FB7B03F10103FB73FB7B002BF0D04EF20013CEF200034FF400021A604EF20013CEF200034FF064
:401E000080721A604EF20013CEF200034FF001021A604EF20013CEF200034FF002021A6048F29223C1F6FF734FF000021A70BB79002B02D0012B08D00FE046F20903C4F290
:401E400000034FF002021A700EE046F20903C4F200034FF003021A7006E046F20903C4F200034FF003021A7048F28C23C1F6FF73FA791A7048F29123C1F6FF734FF00002C1
:401E80001A7048F28D23C1F6FF734FF000021A7048F29023C1F6FF734FF000021A7048F27823C1F6FF734FF000021A7048F28F23C1F6FF734FF000021A7048F20933C1F603
:401EC000FF734FF000021A7046F22803C4F200034FF003021A7046F20803C4F200036FF07F021A704FF00100FFF732FB46F21203C4F200034FF004021A7007F11007BD460B
:401F000080BD00BF80B483B000AF4FF00003FB710BE0FA7948F21833C1F6FF734FF001019954FB7903F10103FB71FB79002BF0D048F29223C1F6FF734FF000021A7048F253
:401F40009123C1F6FF734FF000021A7048F28D23C1F6FF734FF000021A7048F29023C1F6FF734FF000021A7048F27823C1F6FF734FF000021A7048F28F23C1F6FF734FF0DD
:401F800000021A7048F20933C1F6FF734FF000021A7046F22803C4F200034FF003021A7046F20803C4F200036FF07F021A7007F10C07BD4680BC704780B400AF48F2912309
:401FC000C1F6FF731B78DBB21846BD4680BC704780B483B000AF4FF00003FB7148F29023C1F6FF731B78DBB2002B0CD048F29023C1F6FF731B78FB7148F29023C1F6FF7318
:402000004FF000021A70FB79184607F10C07BD4680BC704780B483B000AF0346FB71F97948F29C22C1F6FF720B464FEA43030B444FEA830313445B78DBB2184607F10C07A7
:40204000BD4680BC704700BF80B485B000AF0346FB714FF00003FB81FB79002B24D0FB79082B21D8FB7903F1FF33DBB24FEA03137B737A7B46F20C03C4F2000313441B78AA
:40208000DBB203F007034FEA03239AB2797B46F20D03C4F200030B441B78DBB242EA03039BB2A3F10203FB81FB89184607F11407BD4680BC704700BF80B489B000AFB96014
:4020C00013460246FA73FB80FB7B002B00F09A80FB7B082B00F29680FB7B03F1FF33DBB24FEA0313FB75FA7D46F28803C4F200031344BB61F888F97B48F29C22C1F6FF7299
:402100000B464FEA43030B444FEA8303134403F106031B889BB2C3F50073984212D9F97B48F29C22C1F6FF720B464FEA43030B444FEA8303134403F106031B889BB2C3F51F
:402140000073FB80FA7D46F20C03C4F200031344FA884FEA122292B25FFA82FCF87B48F29C21C1F6FF7102464FEA420202444FEA82020A44D278D2B24CEA0202D2B21A70DC
:40218000FA7D46F20D03C4F200031344FA88D2B21A70BB68002B11D04FF00003FB8309E0BB69F98BBA680A4412781A70FB8B03F10103FB83FA8BFB889A42F1D3F97B48F26A
:4021C0009C22C1F6FF720B464FEA43030B444FEA830313444FF000025A70FA7D46F20E03C4F200031344F87B48F29C21C1F6FF7102464FEA420202444FEA82020A44527977
:40220000D2B21A7007F12407BD4680BC704700BF80B588B000AFB96013460246FA73FB80FB7B002B37D0FB7B082B34D8BB68002B31D0FB7B03F1FF33DBB24FEA0313FB7566
:40224000FA7D46F28803C4F200031344BB61FB7B1846FFF7F9FE0346FB83FA88FB8B9A4201D9FB8BFB804FF00003BB830AE0BA8BBB681344BA691278D2B21A70BB8B03F193
:402280000103BB83BA8BFB889A42F0D3FB7B184600F00AF802E04FF00003FB80FB88184607F12007BD4680BD80B485B000AF0346FB71FB79002B2DD0FB79082B2AD8FB794A
:4022C00003F1FF33DBB24FEA0313FB73F97948F29C22C1F6FF720B464FEA43030B444FEA830313444FF000025A70FA7B46F20E03C4F200031344F87948F29C21C1F6FF713F
:4023000002464FEA420202444FEA82020A445279D2B21A7007F11407BD4680BC704700BF80B582B000AF46F22803C4F200031B78BB71BB7903F01003002B00F08E804FF053
:402340000103FB71BB795BB2002B17DABB7903F00F03012B03D04FF00003FB7123E000F081F848F27923C1F6FF731B78DBB25BB2002B17DA4FF00003FB7114E0BB7903F02D
:402380004003002B02D000F0BFF80CE0BB7903F02003002B02D000F0DDF804E04FF00003FB7100E000BFFB79002B56D046F22803C4F200031B78BB71BB795BB2002B4CDBDA
:4023C00048F28E23C1F6FF731B78DAB248F20A33C1F6FF731B78DBB242EA0303BB7146F22903C4F20003BA791A7046F22903C4F200031B78DBB2BA799A422ED148F2792391
:40240000C1F6FF731B78FB7146F22803C4F200031B78DBB223F07F03BB71BB79002B13D146F22803C4F2000348F27922C1F6FF721278D2B21A7046F22803C4F200031B78D4
:40244000DBB203F00F03FB7148F27923C1F6FF731B78DBB2FA799A42D0D107F10807BD4680BD00BF80B582B000AF46F22803C4F200031B78FB7146F22803C4F20003FA7989
:402480001A7046F22803C4F200031B78FB71FB795BB2002B06DA48F27923C1F6FF73FA791A702DE04FF0020000F012FB46F20003C4F200031B78DBB203F06003202B08D017
:4024C000402B0BD0002B0ED100F054FE0346FB710CE002F0B3F80346FB7107E002F092F80346FB7102E04FF00003FB71FB79002B06D148F27923C1F6FF734FF003021A706C
:4025000007F10807BD4680BD80B500AF48F29223C1F6FF731B78DBB2062B19D801A252F823F000BF5125000051250000412500005125000047250000512500004D2500003B
:4025400000F05AF904E000F055FA01E000F08CFA80BD00BF80B500AF48F29223C1F6FF731B78DBB2062B22D801A252F823F000BFAF250000AF2500008D250000AF2500006E
:4025800093250000AF2500009925000000F03AF90DE000F0A5F90AE04FF0030000F098FA48F27923C1F6FF734FF003021A7080BD80B400AF48F20933C1F6FF731B78DBB2D9
:4025C0001A4648F20C33C1F6FF731B889BB213449AB248F20C33C1F6FF731A8048F20A33C1F6FF734FF000021A7034E048F20A33C1F6FF731B78DBB203F1804303F5C04319
:4026000048F28022C1F6FF7252681178C9B2197002F1010248F28023C1F6FF735A6048F20A33C1F6FF731B78DBB203F10103DAB248F20A33C1F6FF731A7048F28023C1F697
:40264000FF731B889BB203F1FF339AB248F28023C1F6FF731A8048F28023C1F6FF731B889BB2002B07D048F20A33C1F6FF731B78DBB2072BBAD948F20A33C1F6FF731B7836
:40268000DBB2002B07D148F20933C1F6FF731B78DBB2082B1ED148F28E23C1F6FF731B78DAB26FF07F0382EA0303DAB248F28E23C1F6FF731A7048F27923C1F6FF734FF0BB
:4026C0000F021A7048F29223C1F6FF734FF002021A700DE048F27923C1F6FF734FF002021A7048F29223C1F6FF734FF002021A7048F20A33C1F6FF731B78DAB248F2093387
:40270000C1F6FF731A70BD4680BC704780B582B000AF48F28023C1F6FF731B889BB2002B02D100F03DF833E048F29223C1F6FF734FF002021A7048F28E23C1F6FF734FF076
:4027400000021A7000F0F0F946F20703C4F200031B78DBB24FEA03239AB246F20603C4F200031B78DBB242EA03039BB2FB8048F28023C1F6FF731B889BB2FA889A4205D2EF
:4027800048F28023C1F6FF73FA881A80FFF710FF4FF00103184607F10807BD4680BD00BF80B400AF48F29223C1F6FF734FF002021A7048F28E23C1F6FF736FF07F021A7005
:4027C00048F27923C1F6FF734FF00F021A7048F20933C1F6FF734FF000021A7048F20A33C1F6FF734FF000021A704FF001031846BD4680BC704700BF80B500AFFFF7D8FE25
:4028000080BD00BF80B500AF48F20933C1F6FF731B78DBB21A4648F20C33C1F6FF731B889BB213449AB248F20C33C1F6FF731A8048F29223C1F6FF734FF000021A704FF006
:40284000010000F045F948F27923C1F6FF734FF003021A7080BD00BF80B582B000AF48F29223C1F6FF734FF004021A7048F28E23C1F6FF736FF07F021A7000F055F946F26F
:402880000703C4F200031B78DBB24FEA03239AB246F20603C4F200031B78DBB242EA03039BB2FB8048F28023C1F6FF731B889BB2FA889A4205D248F28023C1F6FF73FA88C3
:4028C0001A8048F27923C1F6FF734FF00B021A704FF00103184607F10807BD4680BD00BF80B483B000AF46F20003C4F200037B6046F22903C4F200031B78DBB203F00F039B
:40290000A3F10203DAB248F20A33C1F6FF731A7048F20A33C1F6FF731B78DBB21A4648F20C33C1F6FF731B889BB213449AB248F20C33C1F6FF731A802FE048F28023C1F614
:40294000FF735B687A681278D2B21A7003F1010248F28023C1F6FF735A607B6803F101037B6048F20A33C1F6FF731B78DBB203F1FF33DAB248F20A33C1F6FF731A7048F265
:402980008023C1F6FF731B889BB203F1FF339AB248F28023C1F6FF731A8048F28023C1F6FF731B889BB2002B07D048F20A33C1F6FF731B78DBB2002BBFD148F28E23C1F634
:4029C000FF731B78DAB26FF07F0382EA0303DAB248F28E23C1F6FF731A7048F27923C1F6FF734FF00B021A7007F10C07BD4680BC704700BF80B500AF48F29223C1F6FF7338
:402A00004FF000021A704FF0010000F061F848F27923C1F6FF734FF003021A7080BD00BF80B400AF48F29223C1F6FF734FF006021A7048F27923C1F6FF734FF006021A70DD
:402A400048F28E23C1F6FF736FF07F021A7048F20A33C1F6FF734FF000021A704FF001031846BD4680BC704780B500AF48F27823C1F6FF731B78DBB2002B16D046F2080380
:402A8000C4F2000348F27822C1F6FF721278D2B26FEA42626FEA5262D2B21A7048F27823C1F6FF734FF000021A7048F29223C1F6FF734FF000021A704FF0010000F008F85F
:402AC00048F27923C1F6FF734FF003021A7080BD80B483B000AF0346FB7148F28023C1F6FF739B68002B19D048F28023C1F6FF739B68FA791A7048F28023C1F6FF739A68D6
:402B000048F20C33C1F6FF731B889BB2538048F28023C1F6FF734FF000029A6007F10C07BD4680BC704700BF80B400AF48F20C33C1F6FF734FF000021A8048F28023C1F63B
:402B4000FF739B68002B0FD048F28023C1F6FF739B684FF000021A7048F28023C1F6FF739B684FF000025A80BD4680BC704700BF80B400AF46F20E03C4F200031B7848F277
:402B80009C23C1F6FF731B7BDBB203F00303012B0FD048F29C23C1F6FF73DB7BDAB26FF07F0382EA0303DAB248F29C23C1F6FF73DA7348F29C23C1F6FF734FF001025A7383
:402BC00046F20B03C4F2000346F20B02C4F200021278D2B202F0FE021A70BD4680BC704780B400AF46F21E03C4F200031B7848F29C23C1F6FF731B7EDBB203F00303012B64
:402C00000FD048F29C23C1F6FF73DB7EDAB26FF07F0382EA0303DAB248F29C23C1F6FF73DA7648F29C23C1F6FF734FF001025A7646F20B03C4F2000346F20B02C4F200022D
:402C40001278D2B202F0FD021A70BD4680BC704780B400AFBD4680BC704700BF80B500AFFFF750F980BD00BF80B582B000AF4FF00003BB7146F20403C4F200031B78FB71A3
:402C800046F20003C4F200031B78DBB25BB2002B80F29A8046F20103C4F200031B78DBB203F1FF33052B00F21F8101A252F823F02B2D00004B2D0000932D0000E92E000098
:402CC000E92E0000C92C000046F20303C4F200031B78DBB2212B0FD100F022F948F28023C1F6FF731B889BB2002B00F0FF80FFF70DFD0346BB710CE146F20303C4F2000391
:402D00001B78DBB2222B40F0F38000F057F948F28023C1F6FF731B889BB2002B00F0EA80FFF7F4FC0346BB71F3E000F0A1F948F28023C1F6FF731B889BB2002B00F0DC80A3
:402D4000FFF7E4FC0346BB71E3E0FB79002B40F0D58046F20203C4F200031B78DBB2002B40F0CE8048F28023C1F6FF734FF001021A80FA7948F21033C1F6FF731A4448F2CF
:402D80008023C1F6FF735A60FFF7C0FC0346BB71BFE0FB79002B40F0B58048F28023C1F6FF734FF001021A80FA7948F21833C1F6FF731A4448F28023C1F6FF735A60FFF7AC
:402DC000A5FC0346BB71A4E046F20003C4F200031B78DBB25BB2002BC0F29B8046F20103C4F200031B78DBB2092B07D0092BC0F290800A2B11D00B2B5AD08AE000F038F909
:402E000048F28023C1F6FF731B889BB2002B7BD0FFF722FD0346BB717BE0FB79002B75D146F20203C4F200031B78DBB2002B6FD1FA7946F20303C4F200031B78D9B248F219
:402E40001033C1F6FF739954FA7948F21033C1F6FF739B5CDAB2F97948F21433C1F6FF735B5CDBB29A4208D2FA7948F21433C1F6FF734FF00001995415E0FA7948F2143314
:402E8000C1F6FF739B5CDBB2012B0CD9FA79F97948F21033C1F6FF735B5CD9B248F21433C1F6FF739954FFF7BBFD0346BB7130E0FB79002B2DD146F20203C4F200031B7897
:402EC000DBB2012B25D8FA7946F20203C4F200031B78D9B248F21833C1F6FF739954FFF79FFD0346BB7114E000BF12E000BF10E000BF0EE000BF0CE000BF0AE000BF08E0F7
:402F000000BF06E000BF04E000BF02E000BF00E000BFBB79184607F10807BD4680BD00BF80B584B000AF48F29123C1F6FF731B78DBB203F1FF33DBB2184601F053F90346CC
:402F40007B6046F20403C4F200031B78FB737B6803F110037B60FB7B4FEAC3037A6813447B607B685B687B60FA7B48F27C23C1F6FF739B5CDBB24FEAC3037A6813447B60A0
:402F80007B685B687B607B6803F120037B607B685B68BB60BB681B78DBB21A4648F28023C1F6FF731A8048F28023C1F6FF73BA685A6007F11007BD4680BD00BF80B584B05E
:402FC00000AF48F29123C1F6FF731B78DBB203F1FF33DBB2184601F005F903467B6046F20403C4F200031B78FB737B6803F110037B60FB7B4FEAC3037A6813447B607B689D
:403000005B687B60FA7B48F27C23C1F6FF739B5CDBB24FEAC3037A6813447B607B685B687B607B6803F118037B607B685B68BB60BB6803F101031B78DBB24FEA03239AB2EF
:40304000BB681B78DBB242EA03039BB29AB248F28023C1F6FF731A80BB6803F1020248F28023C1F6FF735A6007F11007BD4680BD80B584B000AF48F28023C1F6FF734FF01B
:4030800000021A8048F29123C1F6FF731B78DBB203F1FF33DBB2184601F0A4F803467B6046F20303C4F200031B78FB7346F20403C4F200031B78BB737B6803F110037B6005
:4030C000BB7B4FEAC3037A6813447B607B685B687B60BB7B002B49D1BA7B48F27C23C1F6FF739B5CDBB24FEAC3037A6813447B607B685B687B60FB7B002B37D0FB7B032BF0
:4031000034D8FB7B03F1FF334FEAC3037A6813447B6046F20203C4F200031B78FB737B681B78FA7B9A4221D87B685B68BB60FA7B13464FEA430313444FEA8303BA68134480
:40314000BB60BB685A6848F28023C1F6FF735A60BB681A8848F28023C1F6FF731A80BB689A6848F28023C1F6FF739A6007F11007BD4680BD80B584B000AF4FF00003FB70F1
:403180004FF000037B6048F28023C1F6FF734FF000021A8046F20003C4F200031B78DBB25BB2002B80F29A8146F20103C4F200031B78DBB20A2B00F2E38201A252F823F097
:4031C000A13300008137000081370000813700008137000081370000ED310000813700007734000081370000A334000046F20303C4F200031B78DBB2012B17D101F008F837
:403200000346FB60FB685B681A4648F28023C1F6FF735A6048F28023C1F6FF734FF012021A80FFF773FA0346FB70B8E246F20303C4F200031B78DBB2022B36D146F2020378
:40324000C4F200031B78DBB2184600F0CBFF0346FB60FB685B681A4648F28023C1F6FF735A6048F28023C1F6FF735B6803F103031B78DBB24FEA03239AB248F28023C1F651
:40328000FF735B6803F102031B78DBB242EA03039BB27B8148F28023C1F6FF737A891A80FFF734FA0346FB7079E246F20303C4F200031B78DBB2032B6DD14FF000037B72BD
:4032C00044F69833C0F200037B6009E07B681B78DBB27A6813447B607B7A03F101037B7246F20203C4F200031B78DBB27A7A9A4204D27B681B78DBB2002BE7D146F2020380
:40330000C4F200031B78DBB2002B2AD046F20203C4F200031B78DAB244F65833C0F200031B7C9A421DD144F63C43C0F200037B6048F24F13C1F6FF731B78DBB2002B05D071
:4033400048F22033C1F6FF731B687B6048F21C10C1F6FF7000F02AFA48F21C13C1F6FF737B607B681B78DBB2002B00F00B827B681B78DBB21A4648F28023C1F6FF731A807E
:4033800048F28023C1F6FF737A685A60FFF7BEF90346FB7003E201F051F90346FB70FEE146F20003C4F200031B78DBB203F00303002B39D0022B40F0E78148F28023C1F6BD
:4033C000FF734FF002021A8046F20403C4F200031B78DBB203F07F0148F29C22C1F6FF720B464FEA43030B444FEA830313449B78DAB248F21C33C1F6FF731A7048F21C333A
:40340000C1F6FF734FF000025A7048F28023C1F6FF7348F21C32C1F6FF725A60FFF776F90346FB7000BFBAE148F28023C1F6FF734FF002021A8048F28F23C1F6FF731B78EA
:40344000DAB248F21C33C1F6FF731A7048F21C33C1F6FF734FF000025A7048F28023C1F6FF7348F21C32C1F6FF725A60FFF74EF90346FB7093E148F28023C1F6FF734FF0AD
:4034800001021A8048F28023C1F6FF7348F29122C1F6FF725A60FFF739F90346FB7000BF7DE148F28023C1F6FF734FF001021A8046F20403C4F200031B78DBB21A4648F20D
:4034C0007C23C1F6FF731A4448F28023C1F6FF735A60FFF71BF90346FB7060E146F20103C4F200031B78DBB203F1FF330A2B00F2568101A252F823F0EB3500009F370000B8
:40350000B93600009F370000253500009F3700009F3700009F370000453500009F3700007B35000046F20203C4F200031B78DAB248F27823C1F6FF731A70FFF771FA0346A3
:40354000FB702CE146F20203C4F200031B78DAB248F29123C1F6FF731A7048F29023C1F6FF734FF001021A704FF0010000F06EFAFFF756FA0346FB7011E100F0F9FF034686
:40358000002B00F0038146F20403C4F200031B78DAB248F28D23C1F6FF731A7048F29023C1F6FF734FF001021A7000F06BFC48F28D23C1F6FF731B78DBB21A4648F28D2302
:4035C000C1F6FF731B78DBB2194648F27C23C1F6FF735B5CD9B248F20833C1F6FF739954FFF71EFA0346FB70D9E046F20003C4F200031B78DBB203F00303012B2CD0012B78
:403600000FD3022B40F0C48046F20203C4F200031B78DBB2002B03D100F0CEFE0346FB7049E046F20203C4F200031B78DBB2012B11D148F28F23C1F6FF731B78DBB21A46A0
:4036400002F0FD0248F28F23C1F6FF731A70FFF7E7F90346FB702EE046F20403C4F200031B78DBB2002B40F0958046F20403C4F200031B78DBB21A46194648F29423C1F61B
:40368000FF735B5CDBB2194646F20203C4F200031B78DBB26FEA0303DBB201EA0303DBB2D9B248F29423C1F6FF739954FFF7B8F90346FB7073E072E046F20003C4F20003EF
:4036C0001B78DBB203F00303012B2BD0012B0ED3022B64D146F20203C4F200031B78DBB2002B59D100F0D0FD0346FB7057E046F20203C4F200031B78DBB2012B4ED148F26D
:403700008F23C1F6FF731B78DBB243F00203DAB248F28F23C1F6FF731A70FFF781F90346FB703CE046F20403C4F200031B78DBB2002B34D146F20403C4F200031B78DBB28B
:403740001A46194648F29423C1F6FF735B5CDBB2194646F20203C4F200031B78DBB26FEA0303DBB201EA0303DBB2D9B248F29423C1F6FF739954FFF753F90346FB700EE0D7
:4037800000BF0CE000BF0AE000BF08E000BF06E000BF04E000BF02E000BF00E000BFFB78184607F11007BD4680BD00BF80B485B000AF78607B681B78012B3ED97B6803F168
:4037C00001031B78032B38D14FF00003BB734FF002037B732CE0BB7B03F1924303F580731B78FB73BB7B03F10103BB737A7B7B681A44FB7B4FEA1313DBB2194644F648335A
:40380000C0F200035B5C13707B7B03F102037B737A7B7B681A44FB7B03F00F0144F64833C0F200035B5C13707B7B03F102037B737B681B787A7B9A42CDD307F11407BD468F
:4038400080BC704780B483B000AF4FF00103BB714FF00003FB71E7E0FA7946F28003C4F2000313444FF00C021A70B97948F29C22C1F6FF720B464FEA43030B444FEA830316
:4038800013445B79DBB2002B24D0B97948F29C22C1F6FF720B464FEA43030B444FEA830313441B79DBB25BB2002B09DAFA7946F20E03C4F2000313444FF00C021A7012E0D9
:4038C000FA7946F20E03C4F2000313444FF008021A7008E0FA7946F20E03C4F2000313446FF07F021A70FA7946F20C03C4F200031344B87948F29C21C1F6FF7102464FEA71
:40390000420202444FEA82020A4402F10802128892B24FEA122292B2D2B21A70FA7946F20D03C4F200031344B87948F29C21C1F6FF7102464FEA420202444FEA82020A4428
:4039400002F10802128892B2D2B21A70FA7946F28603C4F200031344B87948F29C21C1F6FF7102464FEA420202444FEA82020A4402F10602128892B2D2B21A70FA7946F223
:403980008703C4F200031344B87948F29C21C1F6FF7102464FEA420202444FEA82020A4402F10602128892B24FEA122292B2D2B21A70FA7946F28403C4F200031344B879FD
:4039C00048F29C21C1F6FF7102464FEA420202444FEA82020A4402F10602128892B2D2B21A70FA7946F28503C4F200031344B87948F29C21C1F6FF7102464FEA420202440F
:403A00004FEA82020A4402F10602128892B24FEA122292B2D2B21A70BB7903F10103BB71FB7903F11003FB71FB795BB2002BBFF613AF46F20A03C4F200034FF0FF321A7089
:403A400007F10C07BD4680BC704700BF80B588B000AF0346FB714FF00003FB824FF000033B7370E0397B48F29C22C1F6FF720B464FEA43030B444FEA830313444FF000026C
:403A80001A70397B48F29C22C1F6FF720B464FEA43030B444FEA830313444FF000029A70397B48F29C22C1F6FF720B464FEA43030B444FEA830313444FF000025A70397B60
:403AC00048F29C22C1F6FF720B464FEA43030B444FEA830313444FF00002DA70397B48F29C22C1F6FF720B464FEA43030B444FEA830313444FF000025A71397B48F29C2225
:403B0000C1F6FF720B464FEA43030B444FEA8303134403F108034FF000021A80397B48F29C22C1F6FF720B464FEA43030B444FEA8303134403F108034FF000029A703B7B45
:403B400003F101033B733B7B082B8BD9FB79002B1AD04FF00003BB7313E0BA7B48F27C23C1F6FF734FF000019954BA7B48F20833C1F6FF734FF000019954BB7B03F10103D4
:403B8000BB73BB7B002BE8D048F29123C1F6FF731B78DBB2002B00F0718148F29123C1F6FF731B78DBB203F1FF33DBB2184600F019FB0346BB61BB695B683B613B6903F1AE
:403BC00007031B7803F04003002B0ED048F28F23C1F6FF731B78DBB243F00103DAB248F28F23C1F6FF731A700DE048F28F23C1F6FF731B78DBB21A4602F0FE0248F28F23F2
:403C0000C1F6FF731A70BB6903F10803BB61BB691B783B734FF00103BB73CBE0BB695B68FB614FF000037B73BBE0BA7BFB699B7803F07F039A4240F0AC80B97B48F29C227E
:403C4000C1F6FF720B464FEA43030B444FEA8303134403F108031B889AB2FB699B889A4211D2B97BFB69988848F29C22C1F6FF720B464FEA43030B444FEA8303134403F1B2
:403C8000080302461A80FB691B781A4648F27C23C1F6FF739B5CDAB2FB695B789A4278D1FB69DB7803F00303012B14BF00230123FB73FB699B785BB2002B25DAB97B48F25F
:403CC0009C22C1F6FF720B464FEA43030B444FEA830313444FF001025A70B87BFB7B002B02D04FF0070101E04FF00D0148F29C22C1F6FF7203464FEA430303444FEA830394
:403D000013440A465A7124E0B97B48F29C22C1F6FF720B464FEA43030B444FEA830313444FF000025A70B87BFB7B002B02D04FF0050101E04FF0090148F29C22C1F6FF7244
:403D400003464FEA430303444FEA830313440A465A71B97BFB69987848F29C22C1F6FF720B464FEA43030B444FEA8303134402461A71B97BFB69D87848F29C22C1F6FF722B
:403D80000B464FEA43030B444FEA8303134402461A707B7B03F101037B73FB6903F10803FB617A7B3B7B9A42FFF43FAFBB7B03F10103BB73BB7B082B7FF630AFBB695B68F9
:403DC000FB614FF00003BB731CE0FB699B7803F07F01FB69187848F29C22C1F6FF720B464FEA43030B444FEA8303134403F1080302469A70BB7B03F10103BB73FB6903F1C3
:403E00000803FB61BA7B3B7B9A42DED300F014FA024648F29823C1F6FF731A604FF001033B7326E0397B48F29C22C1F6FF720B464FEA43030B444FEA8303134403F10603C8
:403E4000FA8A1A80397B48F29C22C1F6FF720B464FEA43030B444FEA8303134403F108031B889AB2FB8A1344FB823B7B03F101033B733B7B082BD5D9FFF7E4FC07F12007EC
:403E8000BD4680BD80B584B000AF48F29123C1F6FF731B78DBB2002B00F09F8148F29123C1F6FF731B78DBB203F1FF33DBB2184600F098F90346BB60BB6803F10803BB60CE
:403EC000BB681B78FB70BB685B68FB604FF000037B717DE1FB681B781A4648F27C23C1F6FF739B5CDAB2FB681B78194648F20833C1F6FF735B5CDBB29A4200F06181FB68B1
:403F00001B781A4648F27C23C1F6FF739B5CDAB2FB685B789A4240F05381FB681A7846F20403C4F200031B78DBB29A4240F04881FB689B7803F07F033B713B7903F1FF33A0
:403F4000DBB24FEA0313FB71FB68DB7803F00303012B14BF00230123BB71FB689B785BB2002B25DA397948F29C22C1F6FF720B464FEA43030B444FEA830313444FF00102E2
:403F80005A703879BB79002B02D04FF0070101E04FF00D0148F29C22C1F6FF7203464FEA430303444FEA830313440A465A7124E0397948F29C22C1F6FF720B464FEA4303DA
:403FC0000B444FEA830313444FF000025A703879BB79002B02D04FF0050101E04FF0090148F29C22C1F6FF7203464FEA430303444FEA830313440A465A71FA7946F20E03E4
:40400000C4F2000313444FF001021A703979FB68988848F29C22C1F6FF720B464FEA43030B444FEA8303134403F1080302461A803979FB68987848F29C22C1F6FF720B46A3
:404040004FEA43030B444FEA8303134402461A713979FB68D87848F29C22C1F6FF720B464FEA43030B444FEA8303134402461A70397948F29C22C1F6FF720B464FEA43035B
:404080000B444FEA830313444FF00002DA70FA7946F20C03C4F200031344387948F29C21C1F6FF7102464FEA420202444FEA82020A4402F10802128892B24FEA122292B2D5
:4040C000D2B21A70FA7946F20D03C4F200031344387948F29C21C1F6FF7102464FEA420202444FEA82020A4402F10802128892B2D2B21A70FA7946F28603C4F200031344D5
:40410000387948F29C21C1F6FF7102464FEA420202444FEA82020A4402F10602128892B2D2B21A70FA7946F28703C4F200031344387948F29C21C1F6FF7102464FEA4202DA
:4041400002444FEA82020A4402F10602128892B24FEA122292B2D2B21A70FA7946F28403C4F200031344387948F29C21C1F6FF7102464FEA420202444FEA82020A4402F13C
:404180000602128892B2D2B21A70FA7946F28503C4F200031344387948F29C21C1F6FF7102464FEA420202444FEA82020A4402F10602128892B24FEA122292B2D2B21A704B
:4041C0007B7903F101037B71FB6803F10803FB607A79FB789A42FFF47DAE07F11007BD4680BD00BF80B584B000AF0346FB7100F00FF80346FB60FB7903F101034FEAC302EA
:40420000FB6813445B68184607F11007BD4680BD80B400AF48F28C23C1F6FF731B78DBB244F6F442C0F200024FEAC30313445B681846BD4680BC704780B582B000AF48F25E
:404240009123C1F6FF731B78DBB203F1FF33DBB21846FFF7C7FF03463B603B685B6803F104031B78FB713B6803F110033B60FB794FEAC3033A6813443B603B685B68184620
:4042800007F10807BD4680BD80B582B000AF4FF00003FB7146F20403C4F200031B78DBB203F07F037B717B7903F1FF33DBB24FEA0313BB717B79002B77D07B79082B74D87F
:4042C0007979787948F29C22C1F6FF7203464FEA430303444FEA830313449B78DBB243F00103D8B248F29C22C1F6FF720B464FEA43030B444FEA8303134402469A7079799C
:4043000048F29C22C1F6FF720B464FEA43030B444FEA830313444FF00002DA707979787948F29C22C1F6FF7203464FEA430303444FEA830313445B78DBB243F00203D8B253
:4043400048F29C22C1F6FF720B464FEA43030B444FEA8303134402465A70797948F29C22C1F6FF720B464FEA43030B444FEA830313441B79DBB25BB2002B09DABA7946F2E8
:404380000E03C4F2000313446FF072021A7008E0BA7946F20E03C4F2000313446FF076021A70FEF73DFB0346FB71FB79184607F10807BD4680BD00BF80B582B000AF4FF09B
:4043C0000003FB7146F20403C4F200031B78DBB203F07F037B717B7903F1FF33DBB24FEA0313BB717B79002B00F0BC807B79082B00F2B8807879797948F29C22C1F6FF7214
:404400000B464FEA43030B444FEA830313449B78DBB21A4602F0FE0248F29C21C1F6FF7103464FEA430303444FEA83030B449A70797948F29C22C1F6FF720B464FEA43032E
:404440000B444FEA830313444FF00002DA70BA7946F20C03C4F200031344B97946F20C02C4F200020A441278D2B202F07F021A707879797948F29C22C1F6FF720B464FEAAC
:4044800043030B444FEA830313445B78DBB21A4602F0FD0248F29C21C1F6FF7103464FEA430303444FEA83030B445A70797948F29C22C1F6FF720B464FEA43030B444FEA31
:4044C000830313441B79DBB25BB2002B23DA797948F29C22C1F6FF720B464FEA43030B444FEA830313445B78DBB2012B09D1BA7946F20E03C4F2000313444FF00C021A7079
:404500002CE0BA7946F20E03C4F2000313444FF00D021A7022E0797948F29C22C1F6FF720B464FEA43030B444FEA830313445B78DBB2012B09D1BA7946F20E03C4F2000327
:4045400013444FF008021A7008E0BA7946F20E03C4F2000313444FF009021A70FEF760FA0346FB71FB79184607F10807BD4680BD80B584B000AF4FF00103BB7146F20403E6
:40458000C4F200031B78FB7148F29123C1F6FF731B78DBB203F1FF33DBB21846FFF722FE0346BB60BB685B6803F104031B78FB73FA79FB7B9A4202D2FB79002B03D04FF055
:4045C0000003BB7118E0FA79F97948F27C23C1F6FF735B5CD9B248F20833C1F6FF739954FA7946F20203C4F200031B78D9B248F27C23C1F6FF739954BB79184607F11007C9
:40460000BD4680BD80B483B000AF4FF00003FB7146F20003C4F200031B78DBB25BB2002B04DA46F20103C4F200031B78FB79184607F10C07BD4680BC704700BF80B582B0CB
:4046400000AF4FF00003BB714FF00003FB7146F20003C4F200031B78DBB203F00303012B02D0022B07D01DE046F20403C4F200031B78FB7116E046F20403C4F200031B78EB
:40468000DBB203F07F0148F29C22C1F6FF720B464FEA43030B444FEA8303134403F108039B78FB7148F29823C1F6FF731A68FB7913441B78032B03D1FEF7D6FA0346BB71ED
:4046C000BB79184607F10807BD4680BD032A2DE9F0070BD83AB1002311F803C000F803C001339342F8D1BDE8F007704782180C46034603E014F8011C03F8011C03F00306B5
:404700001946A44601330134002EF3D11CF00304634608BFC1EB020C68D06542C4F1040A0CEB050733464FEACA0A5CF805604FEAC408551A08E057F8044F264604FA0AF44E
:4047400049EA0404CC5004335C18032D26FA08F9A5F104050CEB0306EDDC002302E0F15CE154013319199142F9D3BCE753F8404C41F8404C53F83C4C41F83C4C53F8384C50
:4047800041F8384C53F8344C41F8344C53F8304C41F8304C53F82C4C41F82C4C53F8284C41F8284C53F8244C41F8244C53F8204C41F8204C53F81C4C41F81C4C53F8184C99
:4047C00041F8184C53F8144C41F8144C53F8104C41F8104C53F80C4C41F80C4C53F8084C41F8084C53F8044C41F8044C1C460D4640334031BCF13F0FACF1400CB6DC2146A2
:404800002B46541B0FE051F8105C43F8105C51F80C5C43F80C5C51F8085C43F8085C51F8045C43F8045C0F2C0D469C4601F1100103F11003A4F11004E5DCCCEB02010023A8
:4048400003E0EC584CF8034004335E19032903EB0C04A1F10401F4DC7FE700BF032AC9B230B407D822B10023C15401339342FBD130BC704700EB020C034601E003F8011CFD
:4048800003F003041A460133002CF7D14FF00133C2EB0C0403FB01F31FE042F8403C42F83C3C42F8383C42F8343C42F8303C42F82C3C42F8283C42F8243C42F8203C42F845
:4048C0001C3C42F8183C42F8143C42F8103C42F80C3C42F8083C42F8043C154640323F2CA4F14004D9DC2A46C5EB0C0407E042F8103C42F80C3C42F8083C42F8043C154610
:4049000010320F2CA4F11004F1DC2A46C5EB0C0501E042F8043C14460432032DA5F10405F7DC01E004F8011B6445FBD3A0E700BF08B500F017F8074800B10068064901B1EB
:4049400009680022FBF702FC044B0BB1AFF30080FEE700BF000000000000000000000000FEE7000070B544F6085644F60855C0F20006C0F20005761BB61006D0002455F89D
:40498000243001349847A642F9D844F6085544F61056C0F20005C0F20006761B00F0AEF9B61006D0002455F8243001349847A642F9D870BD17000000004F00006970122E2E
:4049C00000000101005100402000405100403000C0510040100000000140001000140140000800400140000A004C0140000200500140200001450040035200400165004068
:404A00003D1401401C150140011701400119014003400140024101400242014002430140034701400348014004490140024C014002500140015101407E02141018027C40D7
:404A4000842D0801340138083E104020410449FF4AFF4BFF4DA04F045018542558045A045B045F01604062C06440654066C068C06AC06CC06EC094089C0EA40EAE03B00861
:404A8000B204B401B602C020C104C5D0C602C710C82EC9FFCAFFCBFFCDAFCE0FCF04D018D280D804DA04DB04DF01E040E2C0E440E540E6C0E8C0EAC0ECC0EEC000100E202F
:404AC0000F021620178018141C021D201E6041204280452046804D0256A0570159025A446004778084018684C002C2A0C4A0D0A5D60BD804EE0AEE0A33803640CC30A64050
:404B0000A780A640A780A640A78008080F40C20CAE40AF80EE5057208720D440E610AC08AF4010011A01000A0000000000000000C0000000100010000000000000000000CB
:404B40000002020002000000303132333435363738394142434445461201000200000008B4043BF100010104800100000902290001010280FA090400000203000003092114
:404B8000110100012224000705010340000107058203400001000000040309042C0343007900700072006500730073002000530065006D00690063006F006E006400750086
:404BC000630074006F0072002A0343006F006E00660069006700750072006100740069006F006E002000300078003000300030003100220349006E00740065007200660062
:404C0000610063006500200030007800300030003000310026034B0069007400500072006F006700200042006F006F0074006C006F006100640065007200000002030000A9
:404C4000240005FF0900A1010900A1010900150025FF7508954091020900150025FF750895408102C0C00000410000002883FF1F2483FF1F410000006C83FF1FB083FF1F8A
:404C800000000000684C000000000000744C0000000000000000000001000000404C0000010000007E4B000001000000804C0000000001034000030000008203400003004D
:404CC00003000000010000006C4B000002000000B04C000001000000A84C000000000000C04C000001000000584B000001000000C44C000001000000E44C0000F8B500BFA8
:404D0000F8BC08BC9E4670473101000071020000F8B500BFF8BC08BC9E4670471D01000000000000384D00000080FF1F400100007802000000000000000000000000000040
:404D40000000000000000000000000000000000000000000000000000000000000000000000000000000000000000000000000000000000000000000000000000000000033
:404D800000000000000000000000000000000000000000000000000000000000000000000000000000000000000000000000000000000000000000000000000000000000F3
:404DC00000000000000000000000000000000000000000000000000000000000000000000000000000000000000000000000000000000000000000000000000000000000B3
:404E000000000000000000000000000000000000000000000000000000000000000000000000000000000000000000000000000000000000000000000000000000366E01CD
:404E4000C05D0000180000000000E02EB4490000B84900002203000000000000000000000000000000000000000000000000000000000000000000000000000000000000CC
:404E800000000000000000000000000000000000000000000000000000000000000000000000000000000000000000000000000000000000000000000000000000000000F2
:404EC00000000000000000000000000000000000000000000000000000000000000000000000000000000000000000000000000000000000000000000000000000000000B2
:404F000000800020114F00007D5400007D54000080B500AF00F0BCFA10B5054C237833B9044B13B10448AFF300800123237010BD6081FF1F0000000044830000084B10B5C5
:404F40001BB108490848AFF300800848036803B910BD074B002BFBD0BDE81040184700BF000000006481FF1F44830000C880FF1F0000000080B596B000AF002387F8573080
:404F800062B60A2002F0C0FE012002F09FFE02F0D9FE0121002000F00FFB00F033FE00F0DBFC0346002B06D000F0CAFC0346002B01D000F0D5FE00F0C3FC0346002BEED079
:404FC00000F058FF0346002B4CD03B1D184600F075FF0346A7F84630B7F84630002B41D000F092FF0346A7F8443097F8573003F00103002B2AD1B7F8443003F00103002BAC
:4050000024D0082002F080FE002002F05FFE00233B6505E0642002F097FD3B6D01333B653B6D002BF6DD012002F050FE0A2002F06BFE0023FB6406E04FF47A7002F084FDB3
:40504000FB6C0133FB64FB6CC72BF5DDB7F8443087F85730B7F84630DAB23B1D1146184602F0E0FF02F03AFF0346002B97D00023BB640023BB640BE002F0E8FE034619465E
:405080003A1DBB6C13440A461A70BB6C0133BB64BB6C3F2B04D802F021FF0346002BEBD100BF00F0F9FE0346002BFAD0BB6C9AB23B1D1146184600F0A7FE70E780B400AFE5
:4050C0000A4B1B680133094A1360084B1B68B3F57A7F07D3064B1B680133054A1360034B00221A6000BFBD4680BC70477C81FF1F8081FF1F80B582B000AF786039603A68C1
:405100000021786803F015F900BF0837BD4680BD80B584B000AFF860B9607A607A68B968F86803F0FBF800BF1037BD4680BD00BF80B584B000AFF860B9607A607A68B96818
:40514000F86803F0EBF800BF1037BD4680BD00BF80B483B000AF0346FB71FEE780B487B000AF7860396000233B6100237B6127E07B699B007A6813441B68BB60BB68FB730D
:40518000BB6823F0FF03BB6014E03B695B003A6813441B781A46BB68134419463B695B003A6813445B780B703B6901333B61FB7B013BFB73FB7B002BE7D17B6901337B61BD
:4051C0007B69152BD4D900BF1C37BD4680BC704780B582B000AF334B44221A80324B18221A70042231493248FFF7A2FF314B06221A70314B52221A70304B314A1278D2B2A4
:405200001A70304B40F618021A802F4B41F251221A800023FB7019237B6014E0FB785B00DAB22A4B1B78DBB203F00103DBB21343DBB203F00303FB704FF4F07002F0D4FF0A
:405240007B68013B7B607B68002B02D0FB78032BE4D17B68002B02D10320FFF779FF1C4B4FF480721A801A4B07221A70194B00221A70194B48221A70154B00221A70174B68
:4052800000221A70164B02221A70164A154B1B78DBB243F00103DBB2137000BF0837BD4680BD00BF804000408240004048830000004100400043004000420040A146004095
:4052C0000F0100492242004020420040254200400440004006400040084000400940004001400040A243004080B483B000AF0B4B1B78FB710A4AFB7903F00703DBB2137067
:40530000084AFB791B09DBB21370074B44221A7000BF0C37BD4680BC704700BFCF0100496E5800406F5800407658004080B586B000AF72B6424B60221A70FFF749FF404BA2
:4053400000221A700023FB7513E0FA7D13465B0013445B003B4A13443B613B691A683B699B889BB219461046FFF7C4FEFB7D0133FB75FB7D062BE8D90023FB751CE0FA7D73
:4053800013469B0013445B002F4A1344FB60FB681B68BB60FB685B687B60FB681A7A5B7A1B0213437B807B881A467968B868FFF7BFFEFB7D0133FB75FB7D002BDFD02349EF
:4053C0002348FFF7CBFE234A224B1B78DBB243F00203DBB21370204A1F4B1B78DBB243F00203DBB213701D4A1C4B1B78DBB243F04003DBB213701A4A194B1B78DBB243F076
:405400001003DBB213700A2216491748FFF790FE0A2216491648FFF78BFE164A154B1B78DBB243F00803DBB21370FFF75DFF0E220A491148FFF76CFE00BF1837BD4680BD69
:40544000004800404C83000078830000DC830000848300000350014013500140A0430040C243004064860000C051004070860000F051004022430040B043004080B500AF66
:4054800002F020FF03461B680C2B00D1FEE7FEE780B586B000AF224B7B61224B3B61204B7B6135E03B691B68FB603B695B68BB603B699B683B6000237B600CE0FB681A6860
:4054C000BB681A60BB680433BB60FB680433FB607B6804337B607A683B689A42EED13B69DB683B6000237B6008E0BB6800221A60BB680433BB607B6804337B607A683B687A
:405500009A42F2D13B6910333B617B69013B7B617B69002BC6D102F0DBFEFFF72BFDFEE7010000001489000080B582B000AF184B184A1A60184A184B1B6843F40073136081
:4055400000237B600FE07B68032B04D8134A7B6852F8233000E0124B12497A6841F822307B6801337B607B682F2BECD90E4B1B78DAB20E4B1A700E4B0A4A1A60FFF7D6FE2F
:405580000C4B00221A6000BF0837BD4680BD00BF0CED00E00004FA0514ED00E0004F00007D5400000080FF1FBC760040C480FF1F08ED00E0C080FF1F80B582B000AF03461A
:4055C0000A46FB711346BB71094B1B78002B04D100F010F8064B01221A70BA79FB791146184600F0D9F800BF0837BD4680BD00BF8481FF1F80B582B000AF02F014FE0346ED
:40560000FB71544A534B1B78DBB243F00103DBB21370514A504B1B78DBB243F00103DBB213704E4B01221A704D4B02221A704D4A4C4B1B78DBB203F07F03DBB2137000203F
:4056400002F082FA484A484B1B78DBB223F00603DBB21370454A454B1B78DBB223F02003DBB21370404A404B1B78DBB243F00103DBB21370012002F067FA282002F064FA3E
:405680003B4A3B4B1B78DBB203F07F03DBB21370374A374B1B78DBB223F04003DBB21370314A314B1B78DBB243F00203DBB21370022002F049FA2C4A2B4B1B78DBB243F0BC
:4056C0000403DBB213702B4B00221A702A4B00221A70FB79184602F0AAFD0721172002F06FFA2649172002F043FA0721182002F067FA2349182002F03BFA0721152002F089
:405700005FFA2049152002F033FA0721022002F057FA1D49022002F02BFA0721032002F04FFA1A49032002F023FA0721042002F047FA1749042002F01BFA07210C2002F0BC
:405740003FFA14490C2002F013FA00BF0837BD4680BD00BFA5430040B54300409D60004009600040106000409443004012600040F85100408460004085600040D56600009F
:40578000BD5F0000C9660000E165000029660000756600009D6A000080B584B000AF03460A46FB711346BB710023FB7306E0FB7B334A0121D154FB7B0133FB73FB7B012BDA
:4057C000F5D9304AFB7913702F4B00221A702F4B00221A702E4B00221A702E4B00221A702D4B00221A702D4B00221A702C4B00221A702C4B4FF400021A602A4B4FF080728D
:405800001A60284B4FF400121A60264B04221A60244B08221A60234B10221A60BB79002B02D0012B09D011E01F4A1F4B1B78DBB223F00103DBB2137011E01B4A1A4B1B78DF
:40584000DBB243F00103DBB2137008E0164A164B1B78DBB243F00103DBB2137000BF134B03221A70124B80221A70012002F0BCFC104B04221A7000BF1037BD4680BD00BF14
:405880004882FF1FAD81FF1FB081FF1FCC81FF1FCF81FF1FC481FF1FCE81FF1FD181FF1FAC81FF1F00E100E00960004028600040086000401260004080B483B000AF00233C
:4058C000FB7106E0FB79144A0121D154FB790133FB71FB79012BF5D9104B00221A70104B00221A700F4B00221A700F4B00221A700E4B00221A700E4B00221A700D4B00221D
:405900001A700D4B03221A700C4B80221A7000BF0C37BD4680BC70474882FF1FB081FF1FCC81FF1FCF81FF1FC481FF1FCE81FF1FD181FF1FAC81FF1F286000400860004050
:4059400080B400AF034B1B78DBB21846BD4680BC704700BFCF81FF1F80B483B000AF0023FB71084B1B78DBB2002B05D0054B1B78FB71044B00221A70FB7918460C37BD46DB
:4059800080BC7047CC81FF1F80B483B000AF0346FB71FA79064913465B0013449B000B4401331B78DBB218460C37BD4680BC7047D481FF1F80B485B000AF0346FB710023B9
:4059C000FB81FB79002B1CD0FB79082B19D8104AFB791B0113441B78DBB29BB203F00F03FB81FB891B029AB20949FB791B010B4401331B78DBB29BB21343FB81FB89023B87
:405A0000FB81FB8918461437BD4680BC704700BFFC5F0040B0B485B000AF03463960FB711346BB80FB79002B6DD0FB79082B6AD8B988FA79364813465B0013449B0003445F
:405A400006331B889BB2C3F5007399420CD9FA792F4913465B0013449B000B4406331B889BB2C3F50073BB802A4CF979BB881B0A9BB2D8B2FA79264D13465B0013449B00F0
:405A80002B4403331B78DBB20343DAB20B0123441A70204AFB79B988C9B21B01134401330A461A703B68002B13D00023FB810CE01948FB79FA8939680A4412781B010344C7
:405AC00008331A70FB890133FB81FA89BB889A42EED3FA790E4913465B0013449B000B44013300221A700B48F979FA79084C13465B0013449B00234405331B78DAB20B01AF
:405B0000034402331A7000BF1437BD46B0BC7047D481FF1FFC5F00407060004080B584B000AF03463960FB711346BB803B68002B30D0FB79002B2DD0FB79082B2AD8FB7990
:405B40001846FFF737FF03461A46BB88934205D9FB791846FFF72EFF034600E0BB88BB800023FB810DE0FB893A6813440D49FA7912010A4408321278D2B21A70FB890133A3
:405B8000FB81FA89BB889A42EDD3FB79184600F00BF801E00023BB80BB8818461037BD4680BD00BF7060004090B482B000AF0346FB71FB79002B1CD0FB79082B19D8FA799C
:405BC0000E4913465B0013449B000B44013300221A700B48F979FA79084C13465B0013449B00234405331B78DAB20B01034402331A7000BF0837BD4690BC7047D481FF1F00
:405C0000FC5F004080B400AF034B4FF400121A6000BFBD4680BC704700E100E080B582B000AF0023FB71314B1B79DBB2184600F067F80346BB712D4B1B78DBB25BB2002B1F
:405C400015DA2A4B5B78DBB2212B00D048E0284B07221A80BA791346DB009B1A254A1344234A536000F024FB0346FB7138E01F4B5B78DBB2202B02D0222B1AD030E01C4B73
:405C800007221A80BA791346DB009B1A194A1344174A5360BB79BA7917498A5CD2B242F00102D1B2144AD15400F080FB0346FB7116E0BB790D4A9278D2B291B20F4A22F8E6
:405CC0001310BB79BA790C498A5CD2B242F00202D1B2094AD15400F007FC0346FB7100BFFB7918460837BD4680BD00BF00600040B881FF1FCC80FF1F9481FF1FA881FF1FD8
:405D000080B485B000AF0346FB710023FB73FF23BB7317E0FB7B104AD35C7B737A7B0F4913465B0013449B000B440A331B78DBB2FA799A4203D1FB7BBB730223FB73FB7B62
:405D40000133FB73FB7B012BE4D9BB7B18461437BD4680BC704700BF9C81FF1FD481FF1F80B582B000AF0023BB71224B00221A70214B00221A70204B00225A700023FB7164
:405D800010E0FB791D4AD35C7B717B79002B06D07B79082B03D87B791846FFF705FFFB790133FB71FB79012BEBD9154B1B78DBB2002B18D0114B1B78DBB2002B13D0114BC9
:405DC0001B78DBB2002B0ED00D4B1B78DBB2082B09D80A4B1B78DBB2082B04D8094B1B78DBB2082B01D90123BB71BB7918460837BD4680BD8581FF1F9481FF1FA081FF1FF2
:405E00009881FF1F9C81FF1F80B584B000AF78600B467B80144B1B781A46144B9B5CFB73FA7B134913465B0013449B000B4408331B889BB27A889A420CD9FA7B0C491346C7
:405E40005B0013449B000B4408331B887B80002001F06EFE7A88FB7B79681846FFF7DAFD00BF1037BD4680BD8581FF1F9881FF1FD481FF1F80B500AF054B1B781A46054B21
:405E80009B5CDBB21846FFF77FFD0346184680BD8581FF1FA081FF1F80B500AF054B1B781A46054B9B5CDBB21846FFF76DFD0346184680BD8581FF1F9881FF1F80B584B0E6
:405EC00000AF78600D4B1B781A460D4B9B5CFB73FA7B0C4913465B0013449B000B4408331B889AB2FB7B79681846FFF717FE0346BB81BB8918461037BD4680BD8581FF1F98
:405F0000A081FF1FD481FF1F80B400AF054B1B781A46054B33F812309BB21846BD4680BC704700BF8581FF1FA881FF1F80B485B000AF78600B46FB701346BB707B68DB789B
:405F400003F00303FB737B689B785BB2002B1ADAFB7B032B0AD0BB7803F001031449FA78CA54BB7843F00103BB701BE0BB789B08DBB203F001030F49FA78CA54BB7843F0CB
:405F80000403BB700EE0FB7B032B0BD0BB785B08DBB203F001030849FA78CA54BB7843F00203BB70BB7818461437BD4680BC70479881FF1F9C81FF1FA081FF1F80B582B0C7
:405FC00000AF374B1B78BB71BB7903F01003002B62D00123FB7197F90630002B12DABB7903F00F03012B02D00023FB711CE000F061F82C4B1B78DBB25BB2002B14DA0023C2
:40600000FB7111E0BB7903F04003002B02D000F095F809E0BB7903F02003002B02D000F0B3F801E00023FB71FB79002B34D01C4B1B78BB7197F90630002B2DDB1A4B1B782A
:40604000DAB21A4B1B78DBB21343BB71184ABB791370174B1B78DBB2BA799A421CD1114B1B78FB710E4B1B78DBB223F07F03BB71BB79002B0AD10A4B0A4A1278D2B21A70E6
:40608000074B1B78DBB203F00F03FB71054B1B78DBB2FA799A42E2D100BF0837BD4680BD28600040CD81FF1F4282FF1FD081FF1F2960004080B582B000AF1D4B1B78FB7182
:4060C0001B4AFB7913701A4B1B78FB7197F90730002B03DA174AFB79137025E0022000F045FA154B1B78DBB203F06003202B08D0402B0BD0002B0ED100F0D6FC0346FB71A3
:406100000CE002F09BF80346FB7107E001F0D6FC0346FB7102E00023FB7100BFFB79002B02D1044B03221A7000BF0837BD4680BD28600040CD81FF1F0060004080B500AF44
:40614000104B1B78DBB2062B19D801A252F823F07F6100007F6100006D6100007F610000736100007F6100007961000000F0F8F806E000F0A7F903E000F0D2F900E000BFF3
:4061800000BF80BDB081FF1F80B500AF124B1B78DBB2062B1DD801A252F823F0D3610000D3610000B9610000D3610000BF610000D3610000C561000000F0D8F80AE000F043
:4061C00027F907E0032000F0D1F9044B03221A7000E000BF00BF80BDB081FF1FCD81FF1F80B483B000AF0023FB71294B1B78DBB29AB2284B1B889BB213449AB2254B1A80D2
:4062000015E02549FB79254A52681278D2B2CA54224B5B680133214A5360FB790133FB711E4B1B889BB2013B9AB21C4B1A801B4B1B889BB2002B02D0FB79072BE1D9144BA8
:406240001B78DBB2082B02D0FB79002B0FD0144B1B78DBB283F07F03DB43DAB2104B1A70104B0F221A70104B02221A7005E00D4B02221A700C4B02221A700C4AFB7913701C
:40628000034AFB79137000BF0C37BD4680BC7047AC81FF1FAE81FF1F00600040B881FF1F4282FF1FCD81FF1FB081FF1FD081FF1F80B582B000AF164B1B889BB2002B02D1A2
:4062C00000F02EF81EE0134B02221A70124B00221A7000F06BF9114BDB79DBB29BB21B029AB20E4B9B79DBB29BB21343FB80084B1B889BB2FA889A4202D2054AFB8813803C
:40630000FFF76EFF012318460837BD4680BD00BFB881FF1FB081FF1F4282FF1F0060004080B400AF094B02221A70094B80221A70084B0F221A70084B00221A70074B00222C
:406340001A7001231846BD4680BC7047B081FF1F4282FF1FCD81FF1FAC81FF1FD081FF1F80B500AFFFF73CFF00BF80BD80B500AF0A4B1B78DBB29AB2094B1B889BB2134473
:406380009AB2074B1A80074B00221A70012000F0EDF8054B03221A7000BF80BDAC81FF1FAE81FF1FB081FF1FCD81FF1F80B582B000AF124B04221A70114B80221A7000F0C8
:4063C000F5F8104BDB79DBB29BB21B029AB20D4B9B79DBB29BB21343FB800B4B1B889BB2FA889A4202D2084AFB881380074B0B221A70012318460837BD4680BDB081FF1F6E
:406400004282FF1F00600040B881FF1FCD81FF1F80B483B000AF0023BB71234B1B78DBB203F00F03DBB2023BFB71FB799AB21F4B1B889BB213449AB21C4B1A8018E01C4BCC
:406440005B681C49BA798A5CD2B21A70184B5B680133174A5360BB790133BB71FB79013BFB71134B1B889BB2013B9AB2104B1A800F4B1B889BB2002B02D0FB79002BDED14F
:406480000D4AFB7913700D4B1B78DBB283F07F03DB43DAB2094B1A70094B0B221A7000BF0C37BD4680BC704729600040AE81FF1FB881FF1F00600040D081FF1F4282FF1F38
:4064C000CD81FF1F80B500AF054B00221A70012000F04CF8034B03221A7000BF80BD00BFB081FF1FCD81FF1F80B400AF084B06221A70084B06221A70074B80221A70074BCB
:4065000000221A7001231846BD4680BC704700BFB081FF1FCD81FF1F4282FF1FD081FF1F80B500AF0D4B1B78DBB2002B0AD00C4A0A4B1B78DBB263F07F03DBB21370074B09
:4065400000221A70074B00221A70012000F00EF8054B03221A7000BF80BD00BFCE81FF1F08600040B081FF1FCD81FF1F80B483B000AF0346FB710B4B9B68002B0CD0094B51
:406580009B68FA791A70074B9B68074A128892B25A80044B00229A6000BF0C37BD4680BC704700BFB881FF1FAE81FF1F80B400AF094B00221A80094B9B68002B07D0074B19
:4065C0009B6800221A70054B9B6800225A8000BFBD4680BC704700BFAE81FF1FB881FF1F80B400AF0D4B01221A700D4B9B7C0D4B1B7BDBB203F00303012B08D0094BDB7B0C
:40660000DBB283F07F03DB43DAB2064BDA73054B01225A7300BFBD4680BC70470B600040FC5F0040D481FF1F80B400AF0E4B02221A700E4B93F822300D4B1B7EDBB203F051
:406640000303012B08D00A4BDB7EDBB283F07F03DB43DAB2064BDA76054B01225A7600BFBD4680BC704700BF0B600040FC5F0040D481FF1F80B400AF104B04221A70104BDC
:4066800093F832300F4B93F82430DBB203F00303012B0AD00B4B93F82730DBB283F07F03DB43DAB2074B83F82720064B012283F8252000BFBD4680BC704700BF0B6000405D
:4066C000FC5F0040D481FF1F80B500AFFEF7F6FC00BF80BD80B500AFFFF7EEF800BF80BD80B582B000AF0023FB71714B1B79BB716F4B1B78DBB25BB2002B6CDA6C4B5B7806
:40670000DBB2013B052B00F2BE8001A252F823F0736700008D670000B7670000876800008768000029670000614BDB78DBB2212B0CD100F0C7F85F4B1B889BB2002B00F0BD
:40674000A480FFF7B5FD0346FB719EE0584BDB78DBB2222B40F0998000F0F2F8554B1B889BB2002B00F09180FFF7A2FD0346FB718BE000F02DF94F4B1B889BB2002B00F0FB
:406780008680FFF795FD0346FB7180E0BB79012B7FD8474B9B78DBB2002B7AD1454B01221A80BB79444A1344424A5360FFF780FD0346FB716DE0BB79012B6CD83D4B01226E
:4067C0001A80BB793D4A13443A4A5360FFF770FD0346FB715FE0364B5B78DBB20A2B10D00B2B3DD0092B00D05CE000F0F1F8314B1B889BB2002B50D0FFF7D8FD0346FB71D6
:406800004BE0BB79012B4AD8294B9B78DBB2002B45D1BB79264AD278D1B2274AD154BB79254AD35CDAB2BB792549CB5CDBB29A4204D2BB79224A0021D1540CE0BB79204A79
:40684000D35CDBB2012B06D9BB79BA791A498A5CD1B21B4AD154FFF747FE0346FB711EE0BB79012B1DD8124B9B78DBB2012B18D8BB790F4A9278D1B2104AD154FFF734FE77
:406880000346FB710DE000BF0CE000BF0AE000BF08E000BF06E000BF04E000BF02E000BF00E000BFFB7918460837BD4680BD00BF00600040B881FF1F5082FF1F4882FF1F15
:4068C0004C82FF1F80B584B000AF194B1B78DBB2013BDBB2184600F041FFF860154B1B79FB72FB7A0233DB00FA681344FB60FB685B68FB60FB7A104AD35CDBB2DB00FA681E
:406900001344FB60FB685B68FB60FB682033FB60FB685B687B607B681B78DBB29AB2074B1A80064A7B68536000BF1037BD4680BDCF81FF1F006000404082FF1FB881FF1F66
:4069400080B584B000AF1E4B1B78DBB2013BDBB2184600F003FFF8601A4B1B79FB72FB7A0233DB00FA681344FB60FB685B68FB60FB7A154AD35CDBB2DB00FA681344FB6006
:40698000FB685B68FB60FB681833FB60FB685B687B607B6801331B78DBB29BB21B029AB27B681B78DBB29BB213439AB2074B1A807B680233054A536000BF1037BD4680BD21
:4069C000CF81FF1F006000404082FF1FB881FF1F80B584B000AF2D4B00221A802C4B1B78DBB2013BDBB2184600F0B8FEF860294BDB78FB72274B1B79BB72BB7A0233DB009E
:406A0000FA681344FB60FB685B68FB60BB7A012B38D8BB7A204AD35CDBB2DB00FA681344FB60FB685B68FB60FB7A002B2AD0FB7A032B27D8FB7A03F10053013BDB00FA6814
:406A40001344FB60134B9B78FB72FB681B78FA7A9A4217D8FB685B687B60FA7A13465B0013449B001A467B6813447B607B685B68064A53607B681A88044B1A807B689B68C4
:406A8000024A936000BF1037BD4680BDB881FF1FCF81FF1F006000404082FF1F80B500AF01F036F800BF80BD80B586B000AF0023FB759D4B1B78FB7100233B619B4B0022B2
:406AC0001A8097F90730002B80F20481964B5B78DBB20A2B00F21B8201A252F823F000BF2B6C00000F6F00000F6F00000F6F00000F6F00000F6F00000D6B00000F6F00004C
:406B00009F6C00000F6F0000B56C0000864BDB78DBB2012B0ED100F049FEB860BB685B68824A5360814B12221A80FFF7C1FB0346FB75EEE17C4BDB78DBB2022B25D17A4BD8
:406B40009B78DBB2184600F009FEB860BB68002B00F0DF81BB685B68744A5360734B5B6803331B78DBB29BB21B029AB26F4B5B6802331B78DBB29BB213439AB26B4B1A8075
:406B8000FFF796FB0346FB75C3E1674BDB78DBB2032B45D10023FB73654B3B6109E03B691B78BB71BB793A6913443B61FB7B0133FB735D4B9B78DBB2FA7B9A4204D23B69FD
:406BC0001B78DBB2002BEAD1574B9B78DBB2EE2B01D1584B3B61544B9B78DBB2002B0BD0514B9B78DAB2544B1B7C9A4204D1534800F0ACF9514B3B613B691B78DBB2002B65
:406C000000F087813B691B78DBB29AB2474B1A80464A3B695360FFF74BFB0346FB7578E101F00CFB0346FB7573E1FB7903F00303002B20D0022B00D030E03C4B02221A800C
:406C4000394B1B79DBB203F07F023D4913465B0013449B000B4402331B78DAB2394B1A70384B00225A70314B364A5A60FFF720FB0346FB7512E02D4B02221A80324B1B78F7
:406C8000DAB2304B1A702F4B00225A70274B2D4A5A60FFF70DFB0346FB7500BF40E1234B01221A80214B294A5A60FFF701FB0346FB7535E11D4B01221A801B4B1B79DBB272
:406CC0001A46234B1344194A5360FFF7F1FA0346FB7525E1144B5B78DBB2013B0A2B00F21A8101A252F823F0F36D0000176F0000816E0000176F0000156D0000176F000099
:406D0000176F0000176F0000596D0000176F0000AF6D0000044B9B78DAB20E4B1A70FFF7E3FB0346FB75FBE000600040B881FF1F68870000B088000010870000D482FF1F7D
:406D4000D481FF1F8881FF1FD181FF1FCF81FF1F4082FF1FCE81FF1F744B9B787B717B79002B06D07B79013BDBB2184600F0F6FCB8607B79002B02D0BB68002B03D17B797F
:406D8000002B40F0CA806A4B1B78DBB27A799A4208D0674A7B791370664B01221A70012000F0DCF9FFF7A0FB0346FB75B5E000F04DFE0346002B00F0B2805C4B1B793B71AF
:406DC0005A4B1B79DAB25C4B1A703B795B4AD35CDAB23B795A49CB5CDBB29A4204D0554B01221A7000F08CFBFFF77EFB0346FB7595E0FB7903F00303012B20D0012B0CD3D9
:406E0000022B00D03BE0494B9B78DBB2002B31D100F078FD0346FB752CE0444B9B78DBB2012B29D1474B1B78DBB223F00203DAB2444B1A70FFF758FB0346FB751CE03B4B67
:406E40001B79DBB2012B19D8384B9B78DBB2DB43DBB2364A1279D2B2114610463A4A125CD2B21340DAB2384B5A54FFF73DFB0346FB7503E000BF53E000BF51E000BF4FE0AA
:406E8000FB7903F00303012B20D0012B0CD3022B00D03BE0254B9B78DBB2002B31D100F0BDFC0346FB752CE0204B9B78DBB2012B29D1244B1B78DBB243F00203DAB2214B8B
:406EC0001A70FFF711FB0346FB751CE0174B1B79DBB2012B19D8154B9B78DBB2DB43DBB2124A1279D2B211461046174A125CD2B21340DAB2144B5A54FFF7F6FA0346FB7510
:406F000003E000BF0CE000BF0AE000BF08E000BF06E000BF04E000BF02E000BF00E000BFFB7D18461837BD4680BD00BF00600040CF81FF1FCC81FF1FC481FF1FB481FF1FD9
:406F40004082FF1FD181FF1F4482FF1FB0B58AB000AF7860324B07F114041D460FCD0FC42B682370002387F826307B68002B52D07B6822221A707B68013303221A7007F15B
:406F80000C03184600F040FE022387F827303EE097F827307A68134497F8262007F128010A4412F81C2C1209D2B207F128010A4412F8142C1A7097F8273001337A68134433
:406FC00000221A7097F8273002337A68134497F8262007F128010A4412F81C2C02F00F0207F128010A4412F8142C1A7097F8273003337A68134400221A7097F8263001339B
:4070000087F8263097F82730043387F8273097F82730212BBCD900BF2837BD46B0BD00BFFC86000090B482B000AF0123FB7180E0464AFB791B0113440C221A70FA794449AE
:4070400013465B0013449B000B4405331B78DBB2002B1CD0FA793E4913465B0013449B000B4404331B78DBB25BB2002B07DA394AFB791B01134402330C221A700EE0354A89
:40708000FB791B011344023308221A7006E0314AFB791B011344023380221A702B48F979FA792B4C13465B0013449B00234406331B889BB2DAB20B01034406331A70234845
:4070C000F979FA79224C13465B0013449B00234406331B889BB21B0A9BB2DAB20B01034407331A701948F979FA79194C13465B0013449B00234406331B889BB2DAB20B0179
:40710000034404331A701148F979FA79104C13465B0013449B00234406331B889BB21B0A9BB2DAB20B01034405331A70FB790133FB71FB79082B7FF67BAF074BFF221A700D
:4071400000BF0837BD4690BC704700BF70600040D481FF1FFC5F00400A60004080B58AB000AF0346FB7100237B84002387F8273050E097F82720B34913465B0013449B00EE
:407180000B4400221A7097F82720AE4913465B0013449B000B44023300221A7097F82720A84913465B0013449B000B44033300221A7097F82720A34913465B0013449B002B
:4071C0000B44083300221A8097F827209D4913465B0013449B000B440A3300221A7097F82720984913465B0013449B000B44013300221A7097F82720924913465B00134467
:407200009B000B44053300221A7097F82730013387F8273097F82730082BAAD9FB79002B16D0002387F825300EE097F82530864A0021D15497F82530844A0021D15497F809
