:400000000080002049020000614900006149000061490000614900006149000061490000614900006149000061490000614900006149000061490000614900006149000089
:4000400061490000614900006149000061490000614900006149000061490000614900006149000061490000614900006149000061490000614900006149000061490000E0
:4000800061490000614900006149000061490000614900006149000061490000614900006149000061490000614900006149000061490000614900006149000061490000A0
:4000C00080B51448144B21E05C689968DD688C420CD0002205E0A6180832D6E9008941E902898C460831AA42F5D101E004EB050C1C696146002204E008320026002741E9DE
:4001000002670831A242F7D1143301380028DBD104F00EFC01000000204D000048F24013C1F6FF731A780AB901201870704700BF48F20010C1F6FF7008B503682BB140F2E1
:400140000003C0F2000303B1984708BD80B582B000AF4FF00003FB8000F046F800F044FF00F074FA0346002B2DD100F069F90346002B31D14FF00003FB800CE04FF00100BA
:4001800000F0D0F800F05CF90346002B07D1FB8803F10103FB80FB88642BEFD900E000BFFB88632B1AD944F2FA63C4F200034FF040021A7047F2305000F0A8FF43F69820EB
:4001C00000F0B4FF0BE041F2883000F09FFF40F6C41000F0ABFF02E000BF00E000BF00F061FF00F08FF9FEE780B582B000AF48F21813C1F6FF731B681B684FF0000019461F
:4002000000F05CF90346FB7148F21413C1F6FF731B681B78FA79C3EB0203FB71FB79C3F10003DBB2FB7148F21413C1F6FF731B681B78FA799A4203D04FF0000000F066F81F
:4002400007F10807BD4680BD064B1C7844F001041C70054B1A78D2B2044B1A7000F0C8F9FFF72EFFE8460040FA460040BC76004080B582B000AF4EF60C53CEF2000340F26C
:400280000042C0F2FA521A604EF61453CEF200034EF61452CEF20002126842F400721A604FF000037B6014E07A687B684FEA830140F20003C0F200030B441B68194648F226
:4002C0000003C1F6FF7343F822107B6803F101037B607B682F2BE7D947F2BC63C4F200031B78DAB248F25013C1F6FF731A704EF60853CEF2000348F20002C1F6FF721A60F2
:4003000001F054F807F10807BD4680BD80B483B000AF0346FB7101BE07F10C07BD4680BC704700BF80B582B000AF78600BE048F21013C1F6FF731B68184601F009F97B68D9
:40034000A3F500437B607B68B3F5004FEFD848F20813C1F6FF731B687A6802FB03F3184601F0F6F807F10807BD4680BD80B582B000AF0346FB80FA8848F20C13C1F6FF73EE
:400380001B7803FB02F3184601F0E2F807F10807BD4680BD80B584B000AF03463960FB714EF60853CEF200031B68FB60FB791F2B03D94FF00000FFF7A9FFFB7903F01F03A1
:4003C00003F110034FEA8302FB6813441B68BB60FB7903F01F0303F110034FEA8302FB6813443A681A60BB68184607F11007BD4680BD00BF80B582B000AF02460B46FA7113
:40040000BB71BB79072B03D94FF00000FFF77EFFFB791F2B03D94FF00000FFF777FFFB7903F01F0303F1604303F56443BA794FEA4212D2B21A7007F10807BD4680BD00BFC4
:4004400080B400AF45F22113C4F200031B78DBB203F010034FEA1313DBB21846BD4680BC704700BF80B485B000AF78600B467B804FF00003FB8109E07B681B781A46FB8913
:400480001344FB817B6803F101037B607B88002B0CBF00230123DBB27A8802F1FF327A80002BE9D1FB89C3F100039BB29BB2184607F11407BD4680BC704700BF80B485B07D
:4004C00000AF786039604FF00003FB7306E07A683B6813441A78FB7B1344FB733B68002B0CBF00230123DBB23A6802F1FF323A60002BECD1FB7B184607F11407BD4680BCC2
:40050000704700BF80B582B000AF48F21813C1F6FF731B681B684FF000001946FFF7CEFF0346FB7148F21413C1F6FF731B681B78FA79C3EB0203FB71FB79C3F10003DBB29B
:40054000FB7148F21413C1F6FF731B681B78FA799A4215D148F21813C1F6FF731B681B68002B0DD001F04CF80346002B08D148F25410C1F6FF7001F057F80346002B03D0D1
:400580004FF00000FFF7C2FE00F060F80346002B09D144F2FA63C4F200031B78DBB203F0C003402B0AD144F2FA63C4F200034FF000021A704FF0000000F0CCF800F004F852
:4005C00007F10807BD4680BD80B400AF44F2FA63C4F200036FF07F021A7044F2F663C4F200034FF001021A70BD4680BC704700BF80B500AF44F2FA63C4F200031B78DBB202
:4006000003F0C003802B15D144F2FA63C4F200034FF000021A704FF6C173C0F203031B68002B07D04FF6C173C0F203031B68184600F002F880BD00BF014648F25013C1F613
:40064000FF731B781A461268084700BF80B485B000AF4FF6C573C0F203031B8803F101034FEA03231A464FF6C973C0F203031B681344BB604FF000037B734FF00003BB7318
:400680004FF6C573C0F203031B8803F101034FEA03237B6013E07B681B78FB73FB7B002B05D0FB7BFF2B02D04FF001037B73BA7BFB7B1344BB737B6803F101037B607A6878
:4006C000BB689A42E7D34FF6C573C0F203031B8803F101034FEA03234FEAD3037B60BA684FF6C073C0F203039A4203D0BB684FEAD30301E04FF40043BB600BE07B6803F1B1
:4007000090431B78DAB2BB7B1344BB737B6803F101037B607A68BB689A42EFD3BB7BC3F10003DBB2BB734FF6C073C0F203031B78BA7B9A4202D17B7B002B02D14FF0060328
:4007400001E04FF00003184607F11407BD4680BC704700BF80B5ADF56C7D00AF024607F1080303F1FF331A704FF00003A7F898334FF00003A7F89A334FF0000387F89D33DB
:4007800007F1080303F1FF331B78002B14BF0023012387F89E3307F1080303F1FF331B78002B06D107F1080303F1FF334FF0FF321A7000F007FB62B64FF0000387F8913378
:4007C00007F5187107F5637207F1080303F1FF331B7808464FF4967100F062FB0346C7F89433D7F89433102B00F08882D7F89433052B00F08582B7F88C33062B04D907F533
:4008000018731B78012B04D04FF0040387F891333FE007F5187303F102031B88A7F89833B7F8983303F1040207F5187313441B88A7F89233B7F8983303F10702B7F88C3327
:400840009A4204D94FF0030387F8913321E0B7F8983303F1060307F51872D35C172B04D04FF0040387F8913313E0B7F8983303F104039BB207F5187210461946FFF7F2FD96
:400880000346B7F892239A4203D04FF0080387F891334FF00003A7F88E3397F89133002B40F0208207F518731B7987F89F334FF0040387F8913307F518735B78A3F1310346
:4008C0000A2B00F2F78101A252F823F0F908000033090000B50C0000B7090000C10A0000B50C0000CB0A0000190B0000E30900006B0B00008D0C000097F89E33002B00F0A0
:40090000DE81B7F89833002B40F0DB814FF00103A7F88E33FFF79AFE0346002B14BF0022012207F518731A714FF0000387F89133D8E197F89E33002B00F0C581B7F89833DF
:40094000012B40F0C28197F89F33032B2AD897F89F33002B09D148F21813C1F6FF731B681B684FEA13239BB201E04FF00003A7F8A033B7F8A033DAB207F518731A71B7F82D
:40098000A0334FEA13239BB2DAB207F518735A7107F518734FF0FF329A7107F518734FF00302DA714FF00403A7F88E334FF0000387F8913396E197F89E33002B04D0B7F802
:4009C0009833032B40F083814FF49073A7F89A3307F59A7318464FF000014FF4907203F03DFF97F89E33002B00F07381B7F89833022B40F27081B7F89A2307F59A731344F8
:400A0000B7F89823A2F1030207F5187101F10701184603F05BFEB7F89823B7F89A3313449BB2A3F10303A7F89A334FF49073A7F89833B7F89A23B7F898339A4237D107F585
:400A4000187303F105031B88A7F89A3397F89D33002B17D107F10C0318464FF000014FF4907203F0FBFE07F10C034FF003004FF0FF011A464FF4907300F0FEFD4FF001033C
:400A800087F89D3397F89F03B7F89A1307F59A72B7F8983300F0F0FD0346002B02D04FF00A0301E04FF0000387F8913303E04FF0030387F891334FF00003A7F89A3311E1F8
:400AC0004FF00003A7F89A331BE1B7F89A23B7F898331344B3F5967F19D84FF0000387F89133B7F89A2307F59A731344B7F8982307F5187101F10401184603F0E7FDB7F846
:400B00009A23B7F898331344A7F89A33EAE04FF0030387F89133E5E0B7F89833002B40F0DC8007F5967244F6BC13C0F2000393E8030082E803004FF0010387F89E334FF0F4
:400B40000803A7F88E33B7F88E3307F5187202F1040107F59672084611461A4603F0B6FD4FF0000387F89133BCE097F89E33002B00F0B580B7F89833032B40F0B28007F596
:400B8000187303F105031B88A7F8A23397F89F334FEA0322B7F8A23313444FEA0323C7F8A433D7F8A4034FF48071FFF787FC034687F8AB3397F89F334FEA03434FEAD30251
:400BC000B7F8A2334FEA4313134403F19043C7F8A4334FF00003A7F8AC3311E0B7F8AC23D7F8A43313441B78DAB297F8AB33134487F8AB33B7F8AC3303F10103A7F8AC33BE
:400C0000B7F8AC331F2BE9D997F89F33032B2BD1B7F8A233FF2B27D1B7F8A23303F00103DBB2002B02D04FF0000301E04FF0010387F8AF3397F8AF33C3F580634FEA0323B2
:400C4000A3F130031B7897F8AB23C3EB020387F8AB334FF6D173C0F203031B7897F8AB23C3EB020387F8AB3397F8AB33C3F10003DBB2DAB207F518731A714FF0000387F85C
:400C800091334FF00103A7F88E332BE0FFF7DEFC0346002B06D144F2FA63C4F200036FF07F021A7044F2F663C4F200034FF001021A7026E04FF0050387F8913312E000BF9C
:400CC00010E000BF0EE000BF0CE000BF0AE000BF08E000BF06E000BF04E000BF02E000BF00E000BF97F8911307F51872B7F88E33084611461A4600F00DF802E000BF00E071
:400D000000BF97F89E33002B7FF456AD07F56C77BD4680BD80B586B000AFB96013460246FA73FB80BB684FF001021A70BB6803F10103FA7B1A70BB6803F10203FA88D2B2ED
:400D40001A70BB6803F10303FA884FEA122292B2D2B21A70FB8803F104039BB2B8681946FFF780FB0346FB82FB8803F10402BB681344FA8AD2B21A70FB8803F10502BB68E0
:400D80001344FA8A4FEA122292B2D2B21A70FB8803F10602BB6813444FF017021A70FB8803F107039AB207F10603B86811461A464FF0960300F020F80346184607F118077B
:400DC000BD4680BD80B500AF62B64FF000004FF0020100F0C5FE48F24413C1F6FF734FF001021A7080BD00BF80B500AF4FF0010001F05AFA80BD00BF80B586B000AFF8602A
:400E00007A600A467A81FB704FF00200F9684FF0400201F051F9FB781A464FEA820213444FEA43039AB248F24213C1F6FF731A804FF000037B8203E04FF00100FFF772FAFC
:400E40004FF0020001F0E6F80346002B10D148F24213C1F6FF731B887A8A9A422CBF00230123DBB27A8A02F101027A82002BE3D14FF0020001F0CEF80346002B03D14FF0BF
:400E800010037B6105E07B687A891A804FF000037B617B69184607F11807BD4680BD00BF80B586B000AFF8607A600A467A81FB707B89402B02D94FF040037B81FB781A46CB
:400EC0004FEA820213444FEA43039AB248F24213C1F6FF731A804FF00003FB8248F24413C1F6FF731B78002B2BD003E04FF00100FFF718FA01F060F80346002B10D148F28C
:400F00004213C1F6FF731B88FA8A9A422CBF00230123DBB2FA8A02F10102FA82002BE5D101F04AF80346002B1DD001F051F8FFF75BFF48F24413C1F6FF734FF000021A70F7
:400F400016E001F045F80346002B0ED001F034F80346002B0BD0FFF747FF09E04FF00100FFF7E0F904E000BF02E000BF00E000BF4FF0010001F04EF80346012B10D048F272
:400F80004213C1F6FF731B88FA8A9A422CBF00230123DBB2FA8A02F10102FA82002BDDD14FF0010001F036F80346012B0ED17B894FF00100F9681A4601F02AF903461A46AD
:400FC0007B681A804FF000033B6106E07B684FF000021A804FF010033B613B69184607F11807BD4680BD00BF80B582B000AF46F27553C4F200031B78DBB223F03F03BB717C
:4010000046F27553C4F20003BA7942F00B02D2B21A7046F29453C4F2000346F29452C4F200021278D2B242F00102D2B21A7046F29553C4F2000346F29552C4F2000212783E
:40104000D2B242F00102D2B21A704EF6602000F03FF84EF6602000F059F847F2305000F065F84FF0000000F071F800F079FA0346FB7146F29453C4F2000346F29452C4F257
:4010800000021278D2B242F01002D2B21A70FB79184600F069FA00F02BF807F10807BD4680BD00BF80B400AF46F27553C4F2000346F27552C4F200021278D2B26FEA426232
:4010C0006FEA5262D2B21A70BD4680BC704700BF80B483B000AF0346FB8046F60823C4F20003FA881A8007F10C07BD4680BC704780B500AF01E000F049F800F037F80346AB
:4011000003F01003002BF6D180BD00BF80B483B000AF0346FB8046F68823C4F20003FA881A8007F10C07BD4680BC704780B483B000AF0346FB8046F64823C4F20003FA8868
:401140001A8007F10C07BD4680BC704780B483B000AF0346FB7146F28453C4F20003FA791A7007F10C07BD4680BC704780B483B000AF46F26453C4F200031B78FB71FB7912
:40118000184607F10C07BD4680BC704780B400AF46F6A823C4F200031B889BB21846BD4680BC704780B582B000AF7860396078684FF000013A6803F051FB07F10807BD4657
:4011C00080BD00BF80B584B000AFF860B9607A60F868B9687A6803F079FA07F11007BD4680BD00BF80B584B000AFF860B9607A60F868B9687A6803F069FA07F11007BD468B
:4012000080BD00BF80B487B000AF786039604FF00003FB604FF00003BB602CE0BB684FEA83027B6813441B683B613B69FB753B6923F0FF033B6117E0FB684FEA43023B6803
:4012400013441B781A463B691344FA684FEA42013A680A4452781A70FB6803F10103FB60FB7D03F1FF33FB75FB7D002BE4D1BB6803F10103BB60BB68102BCFD907F11C0794
:40128000BD4680BC704700BF80B400AF44F28003C4F200034FF003021A8044F28203C4F200034FF01B021A7044F20033C4F200034FF006021A7044F20023C4F200034FF0A8
:4012C00052021A7044F2A163C4F2000340F20F12C4F600121278D2B21A7044F20403C4F200034FF000021A8044F20403C4F200034FF007021A7044F20603C4F200034FF096
:4013000000021A7044F20803C4F200034FF048021A7044F20403C4F200034FF000021A7044F20903C4F200034FF000021A7044F20103C4F200034FF002021A7044F2A233C2
:40134000C4F2000344F2A232C4F200021278D2B242F00102D2B21A70BD4680BC704700BF80B483B000AF40F2CF13C4F600131B78FB7145F66E03C4F20003FA7902F0070223
:401380001A7045F66F03C4F20003FA794FEA1212D2B21A7045F67603C4F200034FF044021A7007F10C07BD4680BC704780B582B000AF72B64FF00003FB702FE0FA7813461D
:4013C0004FEA430313444FEA43031A4644F6C413C0F2000313447B607B681A7859784FEA012141EA020299784FEA014141EA0202DB784FEA036343EA02031A467B681979BC
:401400005B794FEA032343EA01039BB210461946FFF7C8FEFB7803F10103FB70FB78072BCCD944F6F410C0F2000044F63821C0F20001FFF7E7FE45F20303C4F2010345F22B
:401440000302C4F201021278D2B242F00202D2B21A7045F21303C4F2010345F21302C4F201021278D2B242F00202D2B21A7044F2A033C4F2000344F2A032C4F200021278F2
:40148000D2B242F04002D2B21A7044F2C233C4F2000344F2C232C4F200021278D2B242F01002D2B21A7045F2F010C4F2000044F62831C0F200014FF00A02FFF793FE45F2C4
:4014C0002010C4F2000044F63431C0F200014FF00A02FFF787FE45F23210C4F2000044F64031C0F200014FF00802FFF77BFE44F22233C4F2000344F22232C4F20002127899
:40150000D2B242F00802D2B21A7044F60003C4F200034FF001021A70FFF7B6FE44F60003C4F200036FF07E021A70FFF719FF44F2B030C4F2000044F2A031C4F200014FF03B
:401540000E02FFF73FFE07F10807BD4680BD00BF0230800803D000BF01380046FCD17047EFF3108072B6704780F31088704700BF80B582B000AF00F011F94FF0FF337B60A5
:4015800000F074FA0346002B31D14FF0010000F027FA0346072B27D148F27420C1F6FF704FF0020100F026F90346022B12D14FF000037B6003E04FF00100FEF7D7FE44F2B5
:4015C0002273C4F200031B78DBB203F00203002BF1D009E044F22273C4F200031B78DBB203F00203002BD7D000F086FA02E04FF004037B607B68184607F10807BD4680BD47
:4016000080B582B000AFFFF7B3FF03467B607B68002B03D1FFF7ACFF03467B607B68184607F10807BD4680BD80B584B000AF78604FF00003FB6000F0B1F87B68002B03D191
:401640004FF00103FB6010E000F010FA0346002B03D04FF00403FB6007E048F24813C1F6FF737A681A6000F047FAFB68184607F11007BD4680BD00BF80B586B000AFBA60C5
:401680000246FA730A46BA81FB8000F0EFF90346002B7AD1FA7BFB881046B9681A4600F0DBF803467B617B69072B6BD103E04FF00100FEF75BFE44F22273C4F200031B7847
:4016C000DBB203F00203002BF1D044F22273C4F200031B78DBB203F00203002B0ED044F22273C4F200031B78DBB24FEA9303DBB2002B03D14FF000037B6102E04FF0FF3364
:401700007B617B69002B3DD148F27423C1F6FF731A7848F27423C1F6FF735B78F87BB98900F0F8F803467B617B69072B2AD103E04FF00100FEF71AFE44F22273C4F20003D8
:401740001B78DBB203F00203002BF1D044F22273C4F200031B78DBB203F00203002B0ED044F22273C4F200031B78DBB24FEA9303DBB2002B03D14FF000037B6102E04FF082
:40178000FF337B6100F0B8F902E04FF004037B617B69184607F11807BD4680BD80B582B000AFFFF7DDFE0346FB7144F2A033C4F2000344F2A032C4F200021278D2B242F07F
:4017C0000802D2B21A7044F2B033C4F2000344F2B032C4F200021278D2B242F00802D2B21A70FB791846FFF7BFFE07F10807BD4680BD00BF80B584B000AF78600B46FB70A0
:401800004FF00003FB731DE04FF00100FEF7AEFD00E000BF44F22273C4F200031B78DBB203F00103002BEFD0FA7B7B681A4444F22073C4F200031B78DBB21370FB7B03F1B2
:401840000103FB73FA7BFB789A42E2D3FB7B184607F11007BD4680BD80B487B000AFB96013460246FA73FB804FF007033B6144F22273C4F200031B78DBB203F00203002BF2
:401880003ED044F22073C4F200036FF049021A7044F22073C4F200036FF02A021A7044F22073C4F200034FF002021A7044F22273C4F200031B78DBB203F00203002B1BD1CB
:4018C00044F22073C4F20003FA7B1A704FF00003FB820CE044F22073C4F20003F98ABA680A4412781A70FB8A03F10103FB82FA8AFB889A42EED306E04FF009033B6102E0E6
:401900004FF004033B613B69184607F11C07BD4680BC704780B485B000AFF871B980FA70BB704FF00703FB6044F22273C4F200031B78DBB203F00203002B46D044F2207319
:40194000C4F200036FF049021A7044F22073C4F200036FF027021A7044F22073C4F200034FF005021A7044F22273C4F200031B78DBB203F00203002B23D144F22073C4F25A
:401980000003FA791A7044F22073C4F20003BA884FEA122292B2D2B21A7044F22073C4F20003BA88D2B21A7044F22073C4F20003FA781A7044F22073C4F20003BA781A7016
:4019C00006E04FF00903FB6002E04FF00403FB60FB68184607F11407BD4680BC704700BF80B485B000AF0346FB714FF00703FB6044F22273C4F200031B78DBB203F0020342
:401A0000002B29D044F22073C4F200036FF049021A7044F22073C4F200036FF01E021A7044F22073C4F200034FF00E021A7044F22273C4F200031B78DBB203F00203002B1F
:401A400006D144F22073C4F20003FA791A7006E04FF00903FB6002E04FF00403FB60FB68184607F11407BD4680BC704780B582B000AF4FF004033B60FFF772FD0346FB7126
:401A800048F24C13C1F6FF731B78002B29D148F24C13C1F6FF734FF001021A704FF000033B6040F20403C4F208031B6803F00103DBB2002B15D040F20403C4F2080340F204
:401AC0000402C4F20802126822F001021A6000BF00BF00BF48F24D13C1F6FF734FF001021A70FB791846FFF73FFD3B68184607F10807BD4680BD00BF80B582B000AFFFF734
:401B00002FFD0346FB7148F24C13C1F6FF734FF000021A7048F24D13C1F6FF731B78012B15D140F20403C4F2080340F20402C4F20802126842F001021A6000BF00BF00BF77
:401B400048F24D13C1F6FF734FF000021A70FB791846FFF709FD07F10807BD4680BD00BF80B582B000AF02460B46FA71BB7148F24E13C1F6FF731B78002B08D100F012F868
:401B800048F24E13C1F6FF734FF001021A70FA79BB791046194600F00DF907F10807BD4680BD00BF80B582B000AFFFF7D9FC0346FB7144F2A533C4F2000344F2A532C4F21D
:401BC00000021278D2B242F00102D2B21A7044F2B533C4F2000344F2B532C4F200021278D2B242F00102D2B21A7046F29D03C4F200034FF001021A7046F20903C4F200033B
:401C00004FF002021A7046F21003C4F2000346F21002C4F200021278D2B202F07F021A704FF00000FEF7A2FB44F29433C4F2000344F29432C4F200021278D2B202F0F90290
:401C40001A7046F21203C4F2000346F21202C4F200021278D2B202F0DF021A7044F29433C4F2000344F29432C4F200021278D2B242F00102D2B21A704FF00100FEF776FB04
:401C80004FF02800FEF772FB45F2F813C4F2000345F2F812C4F200021278D2B202F07F021A7045F2F813C4F2000345F2F812C4F200021278D2B202F0BF021A7044F2943320
:401CC000C4F2000344F29432C4F200021278D2B242F00202D2B21A704FF00200FEF746FB44F29433C4F2000344F29432C4F200021278D2B242F00402D2B21A7046F2840331
:401D0000C4F200034FF000021A7046F28503C4F200034FF000021A70FB791846FFF724FC4FF0170042F65D41C0F20001FEF732FB4FF017004FF00701FEF75CFB4FF01500B5
:401D400042F65141C0F20001FEF724FB4FF015004FF00701FEF74EFB4FF0180042F22131C0F20001FEF716FB4FF018004FF00701FEF740FB4FF0000042F67131C0F20001C9
:401D8000FEF708FB4FF000004FF00701FEF732FB4FF0010042F6E131C0F20001FEF7FAFA4FF001004FF00701FEF724FB07F10807BD4680BD80B584B000AF02460B46FA715F
:401DC000BB714FF00003FB730BE0FA7B48F21833C1F6FF734FF001019954FB7B03F10103FB73FB7B002BF0D04EF20013CEF200034FF400021A604EF20013CEF200034FF064
:401E000080721A604EF20013CEF200034FF001021A604EF20013CEF200034FF002021A6048F29223C1F6FF734FF000021A70BB79002B02D0012B08D00FE046F20903C4F290
:401E400000034FF002021A700EE046F20903C4F200034FF003021A7006E046F20903C4F200034FF003021A7048F28C23C1F6FF73FA791A7048F29123C1F6FF734FF00002C1
:401E80001A7048F28D23C1F6FF734FF000021A7048F29023C1F6FF734FF000021A7048F27823C1F6FF734FF000021A7048F28F23C1F6FF734FF000021A7048F20933C1F603
:401EC000FF734FF000021A7046F22803C4F200034FF003021A7046F20803C4F200036FF07F021A704FF00100FFF732FB46F21203C4F200034FF004021A7007F11007BD460B
:401F000080BD00BF80B483B000AF4FF00003FB710BE0FA7948F21833C1F6FF734FF001019954FB7903F10103FB71FB79002BF0D048F29223C1F6FF734FF000021A7048F253
:401F40009123C1F6FF734FF000021A7048F28D23C1F6FF734FF000021A7048F29023C1F6FF734FF000021A7048F27823C1F6FF734FF000021A7048F28F23C1F6FF734FF0DD
:401F800000021A7048F20933C1F6FF734FF000021A7046F22803C4F200034FF003021A7046F20803C4F200036FF07F021A7007F10C07BD4680BC704780B400AF48F2912309
:401FC000C1F6FF731B78DBB21846BD4680BC704780B483B000AF4FF00003FB7148F29023C1F6FF731B78DBB2002B0CD048F29023C1F6FF731B78FB7148F29023C1F6FF7318
:402000004FF000021A70FB79184607F10C07BD4680BC704780B483B000AF0346FB71F97948F29C22C1F6FF720B464FEA43030B444FEA830313445B78DBB2184607F10C07A7
:40204000BD4680BC704700BF80B485B000AF0346FB714FF00003FB81FB79002B24D0FB79082B21D8FB7903F1FF33DBB24FEA03137B737A7B46F20C03C4F2000313441B78AA
:40208000DBB203F007034FEA03239AB2797B46F20D03C4F200030B441B78DBB242EA03039BB2A3F10203FB81FB89184607F11407BD4680BC704700BF80B489B000AFB96014
:4020C00013460246FA73FB80FB7B002B00F09A80FB7B082B00F29680FB7B03F1FF33DBB24FEA0313FB75FA7D46F28803C4F200031344BB61F888F97B48F29C22C1F6FF7299
:402100000B464FEA43030B444FEA8303134403F106031B889BB2C3F50073984212D9F97B48F29C22C1F6FF720B464FEA43030B444FEA8303134403F106031B889BB2C3F51F
:402140000073FB80FA7D46F20C03C4F200031344FA884FEA122292B25FFA82FCF87B48F29C21C1F6FF7102464FEA420202444FEA82020A44D278D2B24CEA0202D2B21A70DC
:40218000FA7D46F20D03C4F200031344FA88D2B21A70BB68002B11D04FF00003FB8309E0BB69F98BBA680A4412781A70FB8B03F10103FB83FA8BFB889A42F1D3F97B48F26A
:4021C0009C22C1F6FF720B464FEA43030B444FEA830313444FF000025A70FA7D46F20E03C4F200031344F87B48F29C21C1F6FF7102464FEA420202444FEA82020A44527977
:40220000D2B21A7007F12407BD4680BC704700BF80B588B000AFB96013460246FA73FB80FB7B002B37D0FB7B082B34D8BB68002B31D0FB7B03F1FF33DBB24FEA0313FB7566
:40224000FA7D46F28803C4F200031344BB61FB7B1846FFF7F9FE0346FB83FA88FB8B9A4201D9FB8BFB804FF00003BB830AE0BA8BBB681344BA691278D2B21A70BB8B03F193
:402280000103BB83BA8BFB889A42F0D3FB7B184600F00AF802E04FF00003FB80FB88184607F12007BD4680BD80B485B000AF0346FB71FB79002B2DD0FB79082B2AD8FB794A
:4022C00003F1FF33DBB24FEA0313FB73F97948F29C22C1F6FF720B464FEA43030B444FEA830313444FF000025A70FA7B46F20E03C4F200031344F87948F29C21C1F6FF713F
:4023000002464FEA420202444FEA82020A445279D2B21A7007F11407BD4680BC704700BF80B582B000AF46F22803C4F200031B78BB71BB7903F01003002B00F08E804FF053
:402340000103FB71BB795BB2002B17DABB7903F00F03012B03D04FF00003FB7123E000F081F848F27923C1F6FF731B78DBB25BB2002B17DA4FF00003FB7114E0BB7903F02D
:402380004003002B02D000F0BFF80CE0BB7903F02003002B02D000F0DDF804E04FF00003FB7100E000BFFB79002B56D046F22803C4F200031B78BB71BB795BB2002B4CDBDA
:4023C00048F28E23C1F6FF731B78DAB248F20A33C1F6FF731B78DBB242EA0303BB7146F22903C4F20003BA791A7046F22903C4F200031B78DBB2BA799A422ED148F2792391
:40240000C1F6FF731B78FB7146F22803C4F200031B78DBB223F07F03BB71BB79002B13D146F22803C4F2000348F27922C1F6FF721278D2B21A7046F22803C4F200031B78D4
:40244000DBB203F00F03FB7148F27923C1F6FF731B78DBB2FA799A42D0D107F10807BD4680BD00BF80B582B000AF46F22803C4F200031B78FB7146F22803C4F20003FA7989
:402480001A7046F22803C4F200031B78FB71FB795BB2002B06DA48F27923C1F6FF73FA791A702DE04FF0020000F012FB46F20003C4F200031B78DBB203F06003202B08D017
:4024C000402B0BD0002B0ED100F054FE0346FB710CE002F0B3F80346FB7107E002F092F80346FB7102E04FF00003FB71FB79002B06D148F27923C1F6FF734FF003021A706C
:4025000007F10807BD4680BD80B500AF48F29223C1F6FF731B78DBB2062B19D801A252F823F000BF5125000051250000412500005125000047250000512500004D2500003B
:4025400000F05AF904E000F055FA01E000F08CFA80BD00BF80B500AF48F29223C1F6FF731B78DBB2062B22D801A252F823F000BFAF250000AF2500008D250000AF2500006E
:4025800093250000AF2500009925000000F03AF90DE000F0A5F90AE04FF0030000F098FA48F27923C1F6FF734FF003021A7080BD80B400AF48F20933C1F6FF731B78DBB2D9
:4025C0001A4648F20C33C1F6FF731B889BB213449AB248F20C33C1F6FF731A8048F20A33C1F6FF734FF000021A7034E048F20A33C1F6FF731B78DBB203F1804303F5C04319
:4026000048F28022C1F6FF7252681178C9B2197002F1010248F28023C1F6FF735A6048F20A33C1F6FF731B78DBB203F10103DAB248F20A33C1F6FF731A7048F28023C1F697
:40264000FF731B889BB203F1FF339AB248F28023C1F6FF731A8048F28023C1F6FF731B889BB2002B07D048F20A33C1F6FF731B78DBB2072BBAD948F20A33C1F6FF731B7836
:40268000DBB2002B07D148F20933C1F6FF731B78DBB2082B1ED148F28E23C1F6FF731B78DAB26FF07F0382EA0303DAB248F28E23C1F6FF731A7048F27923C1F6FF734FF0BB
:4026C0000F021A7048F29223C1F6FF734FF002021A700DE048F27923C1F6FF734FF002021A7048F29223C1F6FF734FF002021A7048F20A33C1F6FF731B78DAB248F2093387
:40270000C1F6FF731A70BD4680BC704780B582B000AF48F28023C1F6FF731B889BB2002B02D100F03DF833E048F29223C1F6FF734FF002021A7048F28E23C1F6FF734FF076
:4027400000021A7000F0F0F946F20703C4F200031B78DBB24FEA03239AB246F20603C4F200031B78DBB242EA03039BB2FB8048F28023C1F6FF731B889BB2FA889A4205D2EF
:4027800048F28023C1F6FF73FA881A80FFF710FF4FF00103184607F10807BD4680BD00BF80B400AF48F29223C1F6FF734FF002021A7048F28E23C1F6FF736FF07F021A7005
:4027C00048F27923C1F6FF734FF00F021A7048F20933C1F6FF734FF000021A7048F20A33C1F6FF734FF000021A704FF001031846BD4680BC704700BF80B500AFFFF7D8FE25
:4028000080BD00BF80B500AF48F20933C1F6FF731B78DBB21A4648F20C33C1F6FF731B889BB213449AB248F20C33C1F6FF731A8048F29223C1F6FF734FF000021A704FF006
:40284000010000F045F948F27923C1F6FF734FF003021A7080BD00BF80B582B000AF48F29223C1F6FF734FF004021A7048F28E23C1F6FF736FF07F021A7000F055F946F26F
:402880000703C4F200031B78DBB24FEA03239AB246F20603C4F200031B78DBB242EA03039BB2FB8048F28023C1F6FF731B889BB2FA889A4205D248F28023C1F6FF73FA88C3
:4028C0001A8048F27923C1F6FF734FF00B021A704FF00103184607F10807BD4680BD00BF80B483B000AF46F20003C4F200037B6046F22903C4F200031B78DBB203F00F039B
:40290000A3F10203DAB248F20A33C1F6FF731A7048F20A33C1F6FF731B78DBB21A4648F20C33C1F6FF731B889BB213449AB248F20C33C1F6FF731A802FE048F28023C1F614
:40294000FF735B687A681278D2B21A7003F1010248F28023C1F6FF735A607B6803F101037B6048F20A33C1F6FF731B78DBB203F1FF33DAB248F20A33C1F6FF731A7048F265
:402980008023C1F6FF731B889BB203F1FF339AB248F28023C1F6FF731A8048F28023C1F6FF731B889BB2002B07D048F20A33C1F6FF731B78DBB2002BBFD148F28E23C1F634
:4029C000FF731B78DAB26FF07F0382EA0303DAB248F28E23C1F6FF731A7048F27923C1F6FF734FF00B021A7007F10C07BD4680BC704700BF80B500AF48F29223C1F6FF7338
:402A00004FF000021A704FF0010000F061F848F27923C1F6FF734FF003021A7080BD00BF80B400AF48F29223C1F6FF734FF006021A7048F27923C1F6FF734FF006021A70DD
:402A400048F28E23C1F6FF736FF07F021A7048F20A33C1F6FF734FF000021A704FF001031846BD4680BC704780B500AF48F27823C1F6FF731B78DBB2002B16D046F2080380
:402A8000C4F2000348F27822C1F6FF721278D2B26FEA42626FEA5262D2B21A7048F27823C1F6FF734FF000021A7048F29223C1F6FF734FF000021A704FF0010000F008F85F
:402AC00048F27923C1F6FF734FF003021A7080BD80B483B000AF0346FB7148F28023C1F6FF739B68002B19D048F28023C1F6FF739B68FA791A7048F28023C1F6FF739A68D6
:402B000048F20C33C1F6FF731B889BB2538048F28023C1F6FF734FF000029A6007F10C07BD4680BC704700BF80B400AF48F20C33C1F6FF734FF000021A8048F28023C1F63B
:402B4000FF739B68002B0FD048F28023C1F6FF739B684FF000021A7048F28023C1F6FF739B684FF000025A80BD4680BC704700BF80B400AF46F20E03C4F200031B7848F277
:402B80009C23C1F6FF731B7BDBB203F00303012B0FD048F29C23C1F6FF73DB7BDAB26FF07F0382EA0303DAB248F29C23C1F6FF73DA7348F29C23C1F6FF734FF001025A7383
:402BC00046F20B03C4F2000346F20B02C4F200021278D2B202F0FE021A70BD4680BC704780B400AF46F21E03C4F200031B7848F29C23C1F6FF731B7EDBB203F00303012B64
:402C00000FD048F29C23C1F6FF73DB7EDAB26FF07F0382EA0303DAB248F29C23C1F6FF73DA7648F29C23C1F6FF734FF001025A7646F20B03C4F2000346F20B02C4F200022D
:402C40001278D2B202F0FD021A70BD4680BC704780B400AFBD4680BC704700BF80B500AFFFF750F980BD00BF80B582B000AF4FF00003BB7146F20403C4F200031B78FB71A3
:402C800046F20003C4F200031B78DBB25BB2002B80F29A8046F20103C4F200031B78DBB203F1FF33052B00F21F8101A252F823F02B2D00004B2D0000932D0000E92E000098
:402CC000E92E0000C92C000046F20303C4F200031B78DBB2212B0FD100F022F948F28023C1F6FF731B889BB2002B00F0FF80FFF70DFD0346BB710CE146F20303C4F2000391
:402D00001B78DBB2222B40F0F38000F057F948F28023C1F6FF731B889BB2002B00F0EA80FFF7F4FC0346BB71F3E000F0A1F948F28023C1F6FF731B889BB2002B00F0DC80A3
:402D4000FFF7E4FC0346BB71E3E0FB79002B40F0D58046F20203C4F200031B78DBB2002B40F0CE8048F28023C1F6FF734FF001021A80FA7948F21033C1F6FF731A4448F2CF
:402D80008023C1F6FF735A60FFF7C0FC0346BB71BFE0FB79002B40F0B58048F28023C1F6FF734FF001021A80FA7948F21833C1F6FF731A4448F28023C1F6FF735A60FFF7AC
:402DC000A5FC0346BB71A4E046F20003C4F200031B78DBB25BB2002BC0F29B8046F20103C4F200031B78DBB2092B07D0092BC0F290800A2B11D00B2B5AD08AE000F038F909
:402E000048F28023C1F6FF731B889BB2002B7BD0FFF722FD0346BB717BE0FB79002B75D146F20203C4F200031B78DBB2002B6FD1FA7946F20303C4F200031B78D9B248F219
:402E40001033C1F6FF739954FA7948F21033C1F6FF739B5CDAB2F97948F21433C1F6FF735B5CDBB29A4208D2FA7948F21433C1F6FF734FF00001995415E0FA7948F2143314
:402E8000C1F6FF739B5CDBB2012B0CD9FA79F97948F21033C1F6FF735B5CD9B248F21433C1F6FF739954FFF7BBFD0346BB7130E0FB79002B2DD146F20203C4F200031B7897
:402EC000DBB2012B25D8FA7946F20203C4F200031B78D9B248F21833C1F6FF739954FFF79FFD0346BB7114E000BF12E000BF10E000BF0EE000BF0CE000BF0AE000BF08E0F7
:402F000000BF06E000BF04E000BF02E000BF00E000BFBB79184607F10807BD4680BD00BF80B584B000AF48F29123C1F6FF731B78DBB203F1FF33DBB2184601F053F90346CC
:402F40007B6046F20403C4F200031B78FB737B6803F110037B60FB7B4FEAC3037A6813447B607B685B687B60FA7B48F27C23C1F6FF739B5CDBB24FEAC3037A6813447B60A0
:402F80007B685B687B607B6803F120037B607B685B68BB60BB681B78DBB21A4648F28023C1F6FF731A8048F28023C1F6FF73BA685A6007F11007BD4680BD00BF80B584B05E
:402FC00000AF48F29123C1F6FF731B78DBB203F1FF33DBB2184601F005F903467B6046F20403C4F200031B78FB737B6803F110037B60FB7B4FEAC3037A6813447B607B689D
:403000005B687B60FA7B48F27C23C1F6FF739B5CDBB24FEAC3037A6813447B607B685B687B607B6803F118037B607B685B68BB60BB6803F101031B78DBB24FEA03239AB2EF
:40304000BB681B78DBB242EA03039BB29AB248F28023C1F6FF731A80BB6803F1020248F28023C1F6FF735A6007F11007BD4680BD80B584B000AF48F28023C1F6FF734FF01B
:4030800000021A8048F29123C1F6FF731B78DBB203F1FF33DBB2184601F0A4F803467B6046F20303C4F200031B78FB7346F20403C4F200031B78BB737B6803F110037B6005
:4030C000BB7B4FEAC3037A6813447B607B685B687B60BB7B002B49D1BA7B48F27C23C1F6FF739B5CDBB24FEAC3037A6813447B607B685B687B60FB7B002B37D0FB7B032BF0
:4031000034D8FB7B03F1FF334FEAC3037A6813447B6046F20203C4F200031B78FB737B681B78FA7B9A4221D87B685B68BB60FA7B13464FEA430313444FEA8303BA68134480
:40314000BB60BB685A6848F28023C1F6FF735A60BB681A8848F28023C1F6FF731A80BB689A6848F28023C1F6FF739A6007F11007BD4680BD80B584B000AF4FF00003FB70F1
:403180004FF000037B6048F28023C1F6FF734FF000021A8046F20003C4F200031B78DBB25BB2002B80F29A8146F20103C4F200031B78DBB20A2B00F2E38201A252F823F097
:4031C000A13300008137000081370000813700008137000081370000ED310000813700007734000081370000A334000046F20303C4F200031B78DBB2012B17D101F008F837
:403200000346FB60FB685B681A4648F28023C1F6FF735A6048F28023C1F6FF734FF012021A80FFF773FA0346FB70B8E246F20303C4F200031B78DBB2022B36D146F2020378
:40324000C4F200031B78DBB2184600F0CBFF0346FB60FB685B681A4648F28023C1F6FF735A6048F28023C1F6FF735B6803F103031B78DBB24FEA03239AB248F28023C1F651
:40328000FF735B6803F102031B78DBB242EA03039BB27B8148F28023C1F6FF737A891A80FFF734FA0346FB7079E246F20303C4F200031B78DBB2032B6DD14FF000037B72BD
:4032C00044F69833C0F200037B6009E07B681B78DBB27A6813447B607B7A03F101037B7246F20203C4F200031B78DBB27A7A9A4204D27B681B78DBB2002BE7D146F2020380
:40330000C4F200031B78DBB2002B2AD046F20203C4F200031B78DAB244F65833C0F200031B7C9A421DD144F63C43C0F200037B6048F24F13C1F6FF731B78DBB2002B05D071
:4033400048F22033C1F6FF731B687B6048F21C10C1F6FF7000F02AFA48F21C13C1F6FF737B607B681B78DBB2002B00F00B827B681B78DBB21A4648F28023C1F6FF731A807E
:4033800048F28023C1F6FF737A685A60FFF7BEF90346FB7003E201F051F90346FB70FEE146F20003C4F200031B78DBB203F00303002B39D0022B40F0E78148F28023C1F6BD
:4033C000FF734FF002021A8046F20403C4F200031B78DBB203F07F0148F29C22C1F6FF720B464FEA43030B444FEA830313449B78DAB248F21C33C1F6FF731A7048F21C333A
:40340000C1F6FF734FF000025A7048F28023C1F6FF7348F21C32C1F6FF725A60FFF776F90346FB7000BFBAE148F28023C1F6FF734FF002021A8048F28F23C1F6FF731B78EA
:40344000DAB248F21C33C1F6FF731A7048F21C33C1F6FF734FF000025A7048F28023C1F6FF7348F21C32C1F6FF725A60FFF74EF90346FB7093E148F28023C1F6FF734FF0AD
:4034800001021A8048F28023C1F6FF7348F29122C1F6FF725A60FFF739F90346FB7000BF7DE148F28023C1F6FF734FF001021A8046F20403C4F200031B78DBB21A4648F20D
:4034C0007C23C1F6FF731A4448F28023C1F6FF735A60FFF71BF90346FB7060E146F20103C4F200031B78DBB203F1FF330A2B00F2568101A252F823F0EB3500009F370000B8
:40350000B93600009F370000253500009F3700009F3700009F370000453500009F3700007B35000046F20203C4F200031B78DAB248F27823C1F6FF731A70FFF771FA0346A3
:40354000FB702CE146F20203C4F200031B78DAB248F29123C1F6FF731A7048F29023C1F6FF734FF001021A704FF0010000F06EFAFFF756FA0346FB7011E100F0F9FF034686
:40358000002B00F0038146F20403C4F200031B78DAB248F28D23C1F6FF731A7048F29023C1F6FF734FF001021A7000F06BFC48F28D23C1F6FF731B78DBB21A4648F28D2302
:4035C000C1F6FF731B78DBB2194648F27C23C1F6FF735B5CD9B248F20833C1F6FF739954FFF71EFA0346FB70D9E046F20003C4F200031B78DBB203F00303012B2CD0012B78
:403600000FD3022B40F0C48046F20203C4F200031B78DBB2002B03D100F0CEFE0346FB7049E046F20203C4F200031B78DBB2012B11D148F28F23C1F6FF731B78DBB21A46A0
:4036400002F0FD0248F28F23C1F6FF731A70FFF7E7F90346FB702EE046F20403C4F200031B78DBB2002B40F0958046F20403C4F200031B78DBB21A46194648F29423C1F61B
:40368000FF735B5CDBB2194646F20203C4F200031B78DBB26FEA0303DBB201EA0303DBB2D9B248F29423C1F6FF739954FFF7B8F90346FB7073E072E046F20003C4F20003EF
:4036C0001B78DBB203F00303012B2BD0012B0ED3022B64D146F20203C4F200031B78DBB2002B59D100F0D0FD0346FB7057E046F20203C4F200031B78DBB2012B4ED148F26D
:403700008F23C1F6FF731B78DBB243F00203DAB248F28F23C1F6FF731A70FFF781F90346FB703CE046F20403C4F200031B78DBB2002B34D146F20403C4F200031B78DBB28B
:403740001A46194648F29423C1F6FF735B5CDBB2194646F20203C4F200031B78DBB26FEA0303DBB201EA0303DBB2D9B248F29423C1F6FF739954FFF753F90346FB700EE0D7
:4037800000BF0CE000BF0AE000BF08E000BF06E000BF04E000BF02E000BF00E000BFFB78184607F11007BD4680BD00BF80B485B000AF78607B681B78012B3ED97B6803F168
:4037C00001031B78032B38D14FF00003BB734FF002037B732CE0BB7B03F1924303F580731B78FB73BB7B03F10103BB737A7B7B681A44FB7B4FEA1313DBB2194644F648335A
:40380000C0F200035B5C13707B7B03F102037B737A7B7B681A44FB7B03F00F0144F64833C0F200035B5C13707B7B03F102037B737B681B787A7B9A42CDD307F11407BD468F
:4038400080BC704780B483B000AF4FF00103BB714FF00003FB71E7E0FA7946F28003C4F2000313444FF00C021A70B97948F29C22C1F6FF720B464FEA43030B444FEA830316
:4038800013445B79DBB2002B24D0B97948F29C22C1F6FF720B464FEA43030B444FEA830313441B79DBB25BB2002B09DAFA7946F20E03C4F2000313444FF00C021A7012E0D9
:4038C000FA7946F20E03C4F2000313444FF008021A7008E0FA7946F20E03C4F2000313446FF07F021A70FA7946F20C03C4F200031344B87948F29C21C1F6FF7102464FEA71
:40390000420202444FEA82020A4402F10802128892B24FEA122292B2D2B21A70FA7946F20D03C4F200031344B87948F29C21C1F6FF7102464FEA420202444FEA82020A4428
:4039400002F10802128892B2D2B21A70FA7946F28603C4F200031344B87948F29C21C1F6FF7102464FEA420202444FEA82020A4402F10602128892B2D2B21A70FA7946F223
:403980008703C4F200031344B87948F29C21C1F6FF7102464FEA420202444FEA82020A4402F10602128892B24FEA122292B2D2B21A70FA7946F28403C4F200031344B879FD
:4039C00048F29C21C1F6FF7102464FEA420202444FEA82020A4402F10602128892B2D2B21A70FA7946F28503C4F200031344B87948F29C21C1F6FF7102464FEA420202440F
:403A00004FEA82020A4402F10602128892B24FEA122292B2D2B21A70BB7903F10103BB71FB7903F11003FB71FB795BB2002BBFF613AF46F20A03C4F200034FF0FF321A7089
:403A400007F10C07BD4680BC704700BF80B588B000AF0346FB714FF00003FB824FF000033B7370E0397B48F29C22C1F6FF720B464FEA43030B444FEA830313444FF000026C
:403A80001A70397B48F29C22C1F6FF720B464FEA43030B444FEA830313444FF000029A70397B48F29C22C1F6FF720B464FEA43030B444FEA830313444FF000025A70397B60
:403AC00048F29C22C1F6FF720B464FEA43030B444FEA830313444FF00002DA70397B48F29C22C1F6FF720B464FEA43030B444FEA830313444FF000025A71397B48F29C2225
:403B0000C1F6FF720B464FEA43030B444FEA8303134403F108034FF000021A80397B48F29C22C1F6FF720B464FEA43030B444FEA8303134403F108034FF000029A703B7B45
:403B400003F101033B733B7B082B8BD9FB79002B1AD04FF00003BB7313E0BA7B48F27C23C1F6FF734FF000019954BA7B48F20833C1F6FF734FF000019954BB7B03F10103D4
:403B8000BB73BB7B002BE8D048F29123C1F6FF731B78DBB2002B00F0718148F29123C1F6FF731B78DBB203F1FF33DBB2184600F019FB0346BB61BB695B683B613B6903F1AE
:403BC00007031B7803F04003002B0ED048F28F23C1F6FF731B78DBB243F00103DAB248F28F23C1F6FF731A700DE048F28F23C1F6FF731B78DBB21A4602F0FE0248F28F23F2
:403C0000C1F6FF731A70BB6903F10803BB61BB691B783B734FF00103BB73CBE0BB695B68FB614FF000037B73BBE0BA7BFB699B7803F07F039A4240F0AC80B97B48F29C227E
:403C4000C1F6FF720B464FEA43030B444FEA8303134403F108031B889AB2FB699B889A4211D2B97BFB69988848F29C22C1F6FF720B464FEA43030B444FEA8303134403F1B2
:403C8000080302461A80FB691B781A4648F27C23C1F6FF739B5CDAB2FB695B789A4278D1FB69DB7803F00303012B14BF00230123FB73FB699B785BB2002B25DAB97B48F25F
:403CC0009C22C1F6FF720B464FEA43030B444FEA830313444FF001025A70B87BFB7B002B02D04FF0070101E04FF00D0148F29C22C1F6FF7203464FEA430303444FEA830394
:403D000013440A465A7124E0B97B48F29C22C1F6FF720B464FEA43030B444FEA830313444FF000025A70B87BFB7B002B02D04FF0050101E04FF0090148F29C22C1F6FF7244
:403D400003464FEA430303444FEA830313440A465A71B97BFB69987848F29C22C1F6FF720B464FEA43030B444FEA8303134402461A71B97BFB69D87848F29C22C1F6FF722B
:403D80000B464FEA43030B444FEA8303134402461A707B7B03F101037B73FB6903F10803FB617A7B3B7B9A42FFF43FAFBB7B03F10103BB73BB7B082B7FF630AFBB695B68F9
:403DC000FB614FF00003BB731CE0FB699B7803F07F01FB69187848F29C22C1F6FF720B464FEA43030B444FEA8303134403F1080302469A70BB7B03F10103BB73FB6903F1C3
:403E00000803FB61BA7B3B7B9A42DED300F014FA024648F29823C1F6FF731A604FF001033B7326E0397B48F29C22C1F6FF720B464FEA43030B444FEA8303134403F10603C8
:403E4000FA8A1A80397B48F29C22C1F6FF720B464FEA43030B444FEA8303134403F108031B889AB2FB8A1344FB823B7B03F101033B733B7B082BD5D9FFF7E4FC07F12007EC
:403E8000BD4680BD80B584B000AF48F29123C1F6FF731B78DBB2002B00F09F8148F29123C1F6FF731B78DBB203F1FF33DBB2184600F098F90346BB60BB6803F10803BB60CE
:403EC000BB681B78FB70BB685B68FB604FF000037B717DE1FB681B781A4648F27C23C1F6FF739B5CDAB2FB681B78194648F20833C1F6FF735B5CDBB29A4200F06181FB68B1
:403F00001B781A4648F27C23C1F6FF739B5CDAB2FB685B789A4240F05381FB681A7846F20403C4F200031B78DBB29A4240F04881FB689B7803F07F033B713B7903F1FF33A0
:403F4000DBB24FEA0313FB71FB68DB7803F00303012B14BF00230123BB71FB689B785BB2002B25DA397948F29C22C1F6FF720B464FEA43030B444FEA830313444FF00102E2
:403F80005A703879BB79002B02D04FF0070101E04FF00D0148F29C22C1F6FF7203464FEA430303444FEA830313440A465A7124E0397948F29C22C1F6FF720B464FEA4303DA
:403FC0000B444FEA830313444FF000025A703879BB79002B02D04FF0050101E04FF0090148F29C22C1F6FF7203464FEA430303444FEA830313440A465A71FA7946F20E03E4
:40400000C4F2000313444FF001021A703979FB68988848F29C22C1F6FF720B464FEA43030B444FEA8303134403F1080302461A803979FB68987848F29C22C1F6FF720B46A3
:404040004FEA43030B444FEA8303134402461A713979FB68D87848F29C22C1F6FF720B464FEA43030B444FEA8303134402461A70397948F29C22C1F6FF720B464FEA43035B
:404080000B444FEA830313444FF00002DA70FA7946F20C03C4F200031344387948F29C21C1F6FF7102464FEA420202444FEA82020A4402F10802128892B24FEA122292B2D5
:4040C000D2B21A70FA7946F20D03C4F200031344387948F29C21C1F6FF7102464FEA420202444FEA82020A4402F10802128892B2D2B21A70FA7946F28603C4F200031344D5
:40410000387948F29C21C1F6FF7102464FEA420202444FEA82020A4402F10602128892B2D2B21A70FA7946F28703C4F200031344387948F29C21C1F6FF7102464FEA4202DA
:4041400002444FEA82020A4402F10602128892B24FEA122292B2D2B21A70FA7946F28403C4F200031344387948F29C21C1F6FF7102464FEA420202444FEA82020A4402F13C
:404180000602128892B2D2B21A70FA7946F28503C4F200031344387948F29C21C1F6FF7102464FEA420202444FEA82020A4402F10602128892B24FEA122292B2D2B21A704B
:4041C0007B7903F101037B71FB6803F10803FB607A79FB789A42FFF47DAE07F11007BD4680BD00BF80B584B000AF0346FB7100F00FF80346FB60FB7903F101034FEAC302EA
:40420000FB6813445B68184607F11007BD4680BD80B400AF48F28C23C1F6FF731B78DBB244F6F442C0F200024FEAC30313445B681846BD4680BC704780B582B000AF48F25E
:404240009123C1F6FF731B78DBB203F1FF33DBB21846FFF7C7FF03463B603B685B6803F104031B78FB713B6803F110033B60FB794FEAC3033A6813443B603B685B68184620
:4042800007F10807BD4680BD80B582B000AF4FF00003FB7146F20403C4F200031B78DBB203F07F037B717B7903F1FF33DBB24FEA0313BB717B79002B77D07B79082B74D87F
:4042C0007979787948F29C22C1F6FF7203464FEA430303444FEA830313449B78DBB243F00103D8B248F29C22C1F6FF720B464FEA43030B444FEA8303134402469A7079799C
:4043000048F29C22C1F6FF720B464FEA43030B444FEA830313444FF00002DA707979787948F29C22C1F6FF7203464FEA430303444FEA830313445B78DBB243F00203D8B253
:4043400048F29C22C1F6FF720B464FEA43030B444FEA8303134402465A70797948F29C22C1F6FF720B464FEA43030B444FEA830313441B79DBB25BB2002B09DABA7946F2E8
:404380000E03C4F2000313446FF072021A7008E0BA7946F20E03C4F2000313446FF076021A70FEF73DFB0346FB71FB79184607F10807BD4680BD00BF80B582B000AF4FF09B
:4043C0000003FB7146F20403C4F200031B78DBB203F07F037B717B7903F1FF33DBB24FEA0313BB717B79002B00F0BC807B79082B00F2B8807879797948F29C22C1F6FF7214
:404400000B464FEA43030B444FEA830313449B78DBB21A4602F0FE0248F29C21C1F6FF7103464FEA430303444FEA83030B449A70797948F29C22C1F6FF720B464FEA43032E
:404440000B444FEA830313444FF00002DA70BA7946F20C03C4F200031344B97946F20C02C4F200020A441278D2B202F07F021A707879797948F29C22C1F6FF720B464FEAAC
:4044800043030B444FEA830313445B78DBB21A4602F0FD0248F29C21C1F6FF7103464FEA430303444FEA83030B445A70797948F29C22C1F6FF720B464FEA43030B444FEA31
:4044C000830313441B79DBB25BB2002B23DA797948F29C22C1F6FF720B464FEA43030B444FEA830313445B78DBB2012B09D1BA7946F20E03C4F2000313444FF00C021A7079
:404500002CE0BA7946F20E03C4F2000313444FF00D021A7022E0797948F29C22C1F6FF720B464FEA43030B444FEA830313445B78DBB2012B09D1BA7946F20E03C4F2000327
:4045400013444FF008021A7008E0BA7946F20E03C4F2000313444FF009021A70FEF760FA0346FB71FB79184607F10807BD4680BD80B584B000AF4FF00103BB7146F20403E6
:40458000C4F200031B78FB7148F29123C1F6FF731B78DBB203F1FF33DBB21846FFF722FE0346BB60BB685B6803F104031B78FB73FA79FB7B9A4202D2FB79002B03D04FF055
:4045C0000003BB7118E0FA79F97948F27C23C1F6FF735B5CD9B248F20833C1F6FF739954FA7946F20203C4F200031B78D9B248F27C23C1F6FF739954BB79184607F11007C9
:40460000BD4680BD80B483B000AF4FF00003FB7146F20003C4F200031B78DBB25BB2002B04DA46F20103C4F200031B78FB79184607F10C07BD4680BC704700BF80B582B0CB
:4046400000AF4FF00003BB714FF00003FB7146F20003C4F200031B78DBB203F00303012B02D0022B07D01DE046F20403C4F200031B78FB7116E046F20403C4F200031B78EB
:40468000DBB203F07F0148F29C22C1F6FF720B464FEA43030B444FEA8303134403F108039B78FB7148F29823C1F6FF731A68FB7913441B78032B03D1FEF7D6FA0346BB71ED
:4046C000BB79184607F10807BD4680BD032A2DE9F0070BD83AB1002311F803C000F803C001339342F8D1BDE8F007704782180C46034603E014F8011C03F8011C03F00306B5
:404700001946A44601330134002EF3D11CF00304634608BFC1EB020C68D06542C4F1040A0CEB050733464FEACA0A5CF805604FEAC408551A08E057F8044F264604FA0AF44E
:4047400049EA0404CC5004335C18032D26FA08F9A5F104050CEB0306EDDC002302E0F15CE154013319199142F9D3BCE753F8404C41F8404C53F83C4C41F83C4C53F8384C50
:4047800041F8384C53F8344C41F8344C53F8304C41F8304C53F82C4C41F82C4C53F8284C41F8284C53F8244C41F8244C53F8204C41F8204C53F81C4C41F81C4C53F8184C99
:4047C00041F8184C53F8144C41F8144C53F8104C41F8104C53F80C4C41F80C4C53F8084C41F8084C53F8044C41F8044C1C460D4640334031BCF13F0FACF1400CB6DC2146A2
:404800002B46541B0FE051F8105C43F8105C51F80C5C43F80C5C51F8085C43F8085C51F8045C43F8045C0F2C0D469C4601F1100103F11003A4F11004E5DCCCEB02010023A8
:4048400003E0EC584CF8034004335E19032903EB0C04A1F10401F4DC7FE700BF032AC9B230B407D822B10023C15401339342FBD130BC704700EB020C034601E003F8011CFD
:4048800003F003041A460133002CF7D14FF00133C2EB0C0403FB01F31FE042F8403C42F83C3C42F8383C42F8343C42F8303C42F82C3C42F8283C42F8243C42F8203C42F845
:4048C0001C3C42F8183C42F8143C42F8103C42F80C3C42F8083C42F8043C154640323F2CA4F14004D9DC2A46C5EB0C0407E042F8103C42F80C3C42F8083C42F8043C154610
:4049000010320F2CA4F11004F1DC2A46C5EB0C0501E042F8043C14460432032DA5F10405F7DC01E004F8011B6445FBD3A0E700BF08B500F017F8074800B10068064901B1EB
:4049400009680022FBF702FC044B0BB1AFF30080FEE700BF000000000000000000000000FEE7000070B544F6085644F60855C0F20006C0F20005761BB61006D0002455F89D
:40498000243001349847A642F9D844F6085544F61056C0F20005C0F20006761B00F0AEF9B61006D0002455F8243001349847A642F9D870BD17000000004F00006970122E2E
:4049C00000000101005100402000405100403000C0510040100000000140001000140140000800400140000A004C0140000200500140200001450040035200400165004068
:404A00003D1401401C150140011701400119014003400140024101400242014002430140034701400348014004490140024C014002500140015101407E02141018027C40D7
:404A4000842D0801340138083E104020410449FF4AFF4BFF4DA04F045018542558045A045B045F01604062C06440654066C068C06AC06CC06EC094089C0EA40EAE03B00861
:404A8000B204B401B602C020C104C5D0C602C710C82EC9FFCAFFCBFFCDAFCE0FCF04D018D280D804DA04DB04DF01E040E2C0E440E540E6C0E8C0EAC0ECC0EEC000100E202F
:404AC0000F021620178018141C021D201E6041204280452046804D0256A0570159025A446004778084018684C002C2A0C4A0D0A5D60BD804EE0AEE0A33803640CC30A64050
:404B0000A780A640A780A640A78008080F40C20CAE40AF80EE5057208720D440E610AC08AF4010011A01000A0000000000000000C0000000100010000000000000000000CB
:404B40000002020002000000303132333435363738394142434445461201000200000008B4043BF100010104800100000902290001010280FA090400000203000003092114
:404B8000110100012224000705010340000107058203400001000000040309042C0343007900700072006500730073002000530065006D00690063006F006E006400750086
:404BC000630074006F0072002A0343006F006E00660069006700750072006100740069006F006E002000300078003000300030003100220349006E00740065007200660062
:404C0000610063006500200030007800300030003000310026034B0069007400500072006F006700200042006F006F0074006C006F006100640065007200000002030000A9
:404C4000240005FF0900A1010900A1010900150025FF7508954091020900150025FF750895408102C0C00000410000002883FF1F2483FF1F410000006C83FF1FB083FF1F8A
:404C800000000000684C000000000000744C0000000000000000000001000000404C0000010000007E4B000001000000804C0000000001034000030000008203400003004D
:404CC00003000000010000006C4B000002000000B04C000001000000A84C000000000000C04C000001000000584B000001000000C44C000001000000E44C0000F8B500BFA8
:404D0000F8BC08BC9E4670473101000071020000F8B500BFF8BC08BC9E4670471D01000000000000384D00000080FF1F400100007802000000000000000000000000000040
:404D40000000000000000000000000000000000000000000000000000000000000000000000000000000000000000000000000000000000000000000000000000000000033
:404D800000000000000000000000000000000000000000000000000000000000000000000000000000000000000000000000000000000000000000000000000000000000F3
:404DC00000000000000000000000000000000000000000000000000000000000000000000000000000000000000000000000000000000000000000000000000000000000B3
:404E000000000000000000000000000000000000000000000000000000000000000000000000000000000000000000000000000000000000000000000000000000366E01CD
:404E4000C05D0000180000000000E02EB4490000B84900002203000000000000000000000000000000000000000000000000000000000000000000000000000000000000CC
:404E800000000000000000000000000000000000000000000000000000000000000000000000000000000000000000000000000000000000000000000000000000000000F2
:404EC00000000000000000000000000000000000000000000000000000000000000000000000000000000000000000000000000000000000000000000000000000000000B2
:404F000000800020114F0000B5520000B552000008B500F0D7F9000010B5054C237833B9044B13B10448AFF300800123237010BD5881FF1F00000000AC6D0000084B10B51C
:404F40001BB108490848AFF300800848036803B910BD074B002BFBD0BDE81040184700BF000000005C81FF1FAC6D0000C880FF1F00000000064B1A6801321A601A68B2F5E0
:404F80007A7F04D35A6801325A6000221A6070477481FF1F002808BF0120C000430803F1747303F51043B3FBF0F070472DE9F04190B062B60A2001F077FC494E012001F0B0
:404FC00067FC01F0D7FC0121002000F0CDFA374600F0AEFB002500F00BFB20B100F002FB08B100F00DFC00F0FDFA0028F3D000F087FCB368044698420FD0FFF7CBFF28B1F4
:40500000B0F5803F28BF4FF4803000E001200138012180B201F0D2FDBC6000F087FCFB6898421AD0F06050B102280AD001280AD00338C0B201288CBF0024032404E004463C
:4050400002E0012400E0022401F0A2FC20F0180040EAC400C0B201F0A1FC00F027FC30B3684600F037FC044608B300F06BFC15F00105804615D110F0010F12D0082001F099
:4050800013FC284601F004FC642001F0A9FB012001F0FEFB0A2001F007FC4FF47A7001F09FFBE1B268465FFA88F501F001FD01F0A7FC00288FD0002401F0A2FC30B101F0E2
:4050C00073FC0DF804000134402CF5D100F0F8FB0028FBD0A1B2684600F0CAFB7BE700BF7481FF1FF8B572B65D4B60225D4D1A70A3F5F0638A221A80286818229A700622B1
:4051000083F88022C3F88000522203F5C0731A70554B564A1B78564FDBB2137040F61802544B19261A8041F25122002423F8022C3B784FF4F07003F0010343EA440401F0D8
:40514000A3FD013E04F003041BD0032CF0D14A4A4FF480731380494907231370482000230B70887002211370537102F8031C44491C460A78062642F001020A70384A13700C
:4051800000E0FEE706FB045300211A895868013401F003FE082CF5D180223A493A4801F0F1FD802239493A4801F0ECFD00221146384C04F1700554F8210005EB420320F00E
:4051C000FF06C0B2024405EB4200013303300233984206D013F8037C13F802EC07F806E0F5E701311C29E6D12B4A2C4913782C4C43F002031370137C43F002031374A2F575
:405200008632633A137843F0400313700B7843F010030B70234B5968186803C4198953F80A0F21805968283403C41B891E4923800B78A4F6486443F008030B701B4B01F5C4
:40524000AA511B780C31DBB203F007001B0908704B70174B442119700FCA07C42380F8BD00480040B06D00000F010049A146004025420040224200400440004006400040BF
:40528000A2430040E46D000080080140646E0000801A0140E46E000003500140C2430040C0510040C072000022430040CF0100497658004008B501F039FD03680C2B00D131
:4052C000FEE7FEE780B51148114B0025C0B1A3F1100192C922460439161BB74204D051F8046F42F8046BF7E7114653F8046C8C1AA64202D041F8045BF9E701381033E5E74C
:4053000001F01AFDFFF752FEFEE700BF01000000F0740000104A114B10B41A60104A114C1368114843F4007313600023032B98BF54F823204FEA830188BF0C4A0133302B5A
:405340004250F3D10A4B1A780A4B1A700A4B064A10BC1A60FFF7C6BE0004FA050CED00E014ED00E0004F00000080FF1FB5520000BC760040C080FF1F08ED00E0F8B501F0B8
:40538000A2FC404A02251378012743F001031370137C3D4C43F0010313743C4B02F5E3521F700B3203F8945C1378064603F07F031370002001F014FA2378354A03F0F903FA
:4053C00023701378384603F0DF03137023783B43237001F005FA282001F002FA2D4B28461A7802F07F021A701A7802F0BF021A7023782B43237001F0F3F92378264A43F0ED
:4054000004032370002313703046537001F05FFC0721172001F0FAF92049172001F0E8F90721182001F0F2F91D49182001F0E0F90721152001F0EAF91A49152001F0D8F9C3
:405440002846072101F0E2F91749284601F0D0F90721032001F0DAF91449032001F0C8F90721042001F0D2F91149042001F0C0F907210C2001F0CAF9BDE8F8400D490C206A
:4054800001F0B6B9A5430040944300409D60004012600040F851004084600040515E0000795C00004D5E0000B95D0000E55D0000155E00005560000008B51E4B01221A702F
:4054C0005A701D4B1D4A1870002313701C4A13701C4A13701C4A13701C4A13701C4A13701C4A13701C4B4FF400021A604FF080721A604FF400121A6004221A6008221A608B
:4055000010221A60154B19B91A7802F0FE0202E01A7842F001021A70114B03221A70802203F8202C012001F0AFFB0E4B04221A7008BD00BF3782FF1FA581FF1FA881FF1F37
:40554000C081FF1FC381FF1FB881FF1FC281FF1FC581FF1FA481FF1F00E100E009600040286000401260004070B5074C054623780E461BB9FFF702FF01232370314628460E
:40558000BDE87040FFF798BF8481FF1F0C4B01221A705A700B4A002313700B4A13700B4A13700B4A13700B4A13700B4A13700B4A13700B4B03221A70802203F8202C7047A8
:4055C0003782FF1FA881FF1FC081FF1FC381FF1FB881FF1FC281FF1FC581FF1FA481FF1F28600040014B1878704700BFC381FF1F044B1A7802F0FF001AB118780022C0B230
:405600001A707047C081FF1F024A0C2303FB002040787047C681FF1F431E072B0CD8074A064B00010344805C5B7800F00F0043EA0020023880B2704700207047FC5F00406C
:40564000431E072BF0B531D8194B0C2505FB0035EC88184FA4B2C4F50074A2424FF00C0404FB003488BFEA88E67884BFC2F5007292B2104C46EA12260501EE552C44D6B28F
:40568000667041B90C2202FB0030002343704379DBB2A370F0BD0E46074F2F44751AADB2AA42EFD916F8015B3D72F7E7F0BD00BFC681FF1FFC5F004070600040431E072B1B
:4056C0000AD8064A0C2303FB002300225A705A79034BD2B200011A54704700BFC681FF1FFE5F004038B505461446D1B1431E072B19D8FFF791FFA04203D22846FFF78CFFEC
:4057000004460A4609482B011844531A9BB29C4203D9037A02F8013BF7E72846FFF7CEFF02E00C4600E00024204638BD70600040024B4FF400121A60704700BF00E100E0CA
:4057400070B5094C094DFF2100230C26E25C06FB0252927A824204BF194602230133DBB2012BF3D0084670BD9681FF1FC681FF1F10B51E4C2079FFF7E3FF237813F0800FA8
:4057800063780DD0212B2ED1BDE81040184B07221A80184AC0EBC0001044586000F0C2BADBB2202B0ED0222B1DD1A378124A22F81030124A135C43F002031354BDE8104065
:4057C00000F090B90A4A07230A491380C0EBC0030B445360094A135C43F001031354BDE8104000F0C5BA002010BD00BF00600040AC81FF1FCC80FF1F9E81FF1F9281FF1F69
:4058000010B5164A00231370154A164C137053702078C0B2431E072B01D8FFF74FFF6078C0B2431E072B01D8FFF748FF0E4A13788BB123787BB10D4B197861B11278082A4C
:4058400009D8084A1278082A05D81878082894BF0020012010BD012010BD00BF8581FF1F9281FF1F9881FF1F9481FF1F9681FF1F0A4610B40A4B0B491B780B4CCB5C0C219F
:40588000DBB201FB03410C89A4B2944238BF0A8910BC014638BF92B21846FFF7D1BE00BF8581FF1F9481FF1FC681FF1F024B034A1B78D05CFFF7A8BE8581FF1F9881FF1F14
:4058C000024B034A1B78D05CFFF79EBE8581FF1F9481FF1F074B084A1B780849D35C0C22DBB202FB03121289014692B21846FFF7F9BE00BF8581FF1F9881FF1FC681FF1F72
:4059000010B5084B084C1B78C3EBC303E118C8788A7842EA00204A7842EA0022E05C40EA022010BD8581FF1FCC80FF1F034B044A1B78C3EBC3031344587970478581FF1FD4
:40594000CC80FF1F034B1A78034B33F8120080B2704700BF8581FF1F9E81FF1FC37890F9020003F0030300280FDA032B15BF0C480C4802F00103C2F3800319BFC15442F082
:405980000102C15442F0040207E0032B1FBF0648C2F34003C15442F002021046704700BF9481FF1F9681FF1F9881FF1F30B51A4A1A491B4D0878138803449BB21380194AEF
:4059C00000231488D8B2A4B27CB1082B0CD050680078C0B2E85450680133013050601088013880B21080ECE718460B780E4C082B0E4A00D040B10E4D2B7883F080032B70A5
:405A00000F232370022301E0022323701370094B1870087030BD00BFA681FF1FA481FF1F00600040AC81FF1FC181FF1FA881FF1F3482FF1FC481FF1F074B02221A70074BBD
:405A400080221A70064B0F221A70064A00231370054A012013707047A881FF1F3482FF1FC181FF1FA481FF1FC481FF1F30B5164B16491B780A8803F00F03023BDBB21A4436
:405A800092B20A80124C134A0020118889B279B173B15568215C013BC9B229705168DBB20131516011880130013989B21180ECE7094A1370094A137883F080031370084B45
:405AC0000B221A7030BD00BF29600040A681FF1F00600040AC81FF1FC481FF1F3482FF1FC181FF1F064A06231370064A01201370054B80221A70054B00221A70704700BFD5
:405B0000A881FF1FC181FF1F3482FF1FC481FF1F054B9A683AB19A68044910709A680988518000229A607047AC81FF1FA681FF1F08B5124B1A78D2B21A701B78DBB21A06BA
:405B400002D50F4A137008BD0220FFF7E1FF0D4B1B7803F06003202B05D0402B06D043B900F0E6FC04E001F0B9F801E000F01AFE10B9034B03221A7008BD00BF28600040C4
:405B8000C181FF1F0060004008B5084A084B0120197813880B449BB21380064B00221A70FFF7B6FF044B03221A7008BDA681FF1FA481FF1FA881FF1FC181FF1F08B50C4B59
:405BC0001B78DBB2042B07D0062B09D0022B0DD1BDE80840FFF7D8BFBDE80840FFF746BF0320FFF795FF034B03221A7008BD00BFA881FF1FC181FF1F08B5054B00220120E3
:405C00001A70FFF785FF034B03221A7008BD00BFA881FF1FC181FF1F08B50A4B1A7832B11A78094942F080020A7000221A70074B002201201A70FFF76BFF054B03221A7075
:405C400008BD00BFC281FF1F08600040A881FF1FC181FF1F074B1B78DBB2042B05D0062B05D0022B05D1FFF7A1BEFFF7C5BFFFF7D3BF7047A881FF1F38B51D4C2378DBB29E
:405C8000DD0634D518060AD503F00F03012B2ED1FFF74EFF174B1B78190609D538BD5A0602D5FFF7D7FF03E09D0620D5FFF786FF23781B061BD4104B1A78104B1B781343CC
:405CC0000F4A13701278934211D10A4A0849154613782078DBB2000605D41378DBB20B700B7803F00F0328788342F1D138BD38BD28600040C181FF1F3482FF1FC481FF1F6D
:405D000029600040054A00231380054A916819B191680B7092685380704700BFA681FF1FAC81FF1F0E4808B503889BB213B9FFF783FE13E00B4B02221A700B4B00221A7015
:405D4000FFF7E0FF094AD1799379028843EA012392B2934238BF0380FFF728FE012008BDAC81FF1FA881FF1F3482FF1F0060004008B50C4B04221A700B4B80221A70FFF7F3
:405D8000C1FF0A4A0120D179937943EA012308490A8892B2934238BF0B80064B0B221A7008BD00BFA881FF1F3482FF1F00600040AC81FF1FC181FF1F084B01221A700F3B4D
:405DC0009B7C074B1A7B02F00302012A1EBFDA7B82F08002DA7301225A7370470B600040C681FF1F094B02221A700F3B93F82230074B1A7E02F00302012A1EBFDA7E82F07D
:405E00008002DA7601225A76704700BF0B600040C681FF1F0B4B04221A700F3B93F83230094B93F8242002F00302012A1EBF93F8272082F0800283F82720012283F825204D
:405E4000704700BF0B600040C681FF1FFFF792B8FFF79CBB08B50B4B18780138C0B200F071F9094B09491B79DBB200EBC3004269CB5C02EBC3035B68054A596A0B78138082
:405E8000516008BDC381FF1F006000403282FF1FAC81FF1F08B50D4B18780138C0B200F051F90B4B0B491B79DBB200EBC3004269CB5C02EBC3035B68DB69597813F8022BB5
:405EC00042EA012204490A804B6008BDC381FF1F006000403282FF1FAC81FF1F70B5194C00232380184B18780138C0B200F02AF91649CB780A79DBB2D2B2012A20D8144D32
:405F00005E1EAD5C022EEDB21AD800EBC202526903F1005302EBC5025068013B8A7800EBC30510F83330D2B2934209D30C2353436968CA185068CB5A606023809368A360B7
:405F400070BD00BFAC81FF1FC381FF1F006000403282FF1F38B53A4A13791178DBB211F0800F114633D05278013A052A66D8DFE802F0101827656503CB78212B02D1FFF77A
:405F800069FF08E02E4BDB78222B57D1FFF782FF01E0FFF7A3FF2B4B1B889BB2002B4DD00AE0012B4AD88A78002A47D1254901220A80254A13444B60BDE83840FFF7B2BE27
:405FC000012B3BD81F4901220A80204AF2E75178C9B20A290DD00B2923D009292ED1FFF77DFF184B1B889BB243B3BDE83840FFF7BFBE012B22D8917801F0FF00F1B9D27800
:406000001149D2B2CA54124ACD5CD45CA54201D2D0540FE0D05C01280CD9C95CC9B2D15408E0012B0AD89178012907D892780749D2B2CA54BDE83840FFF754BD002038BDA6
:4060400000600040AC81FF1F3B82FF1F3782FF1F3982FF1F00F0BCBB70B50446184B88B003AA03F11006154618685968083303C5B3422A46F7D11B782B70FCB12223237003
:4060800001AD03232846637000F0CAFB002220461146AB5C08AC04EB131414F8144C03F00F03847008AC234413F8143C0132082AC1700371417100F10400EAD108B070BD3A
:4060C000D47200002DE9F0411A4D01222E460C2080274FF0080E184B00FB025C14012344187016499CF805802144B8F1000F07D09CF8044024064CBF887081F802E000E081
:406100008F7000FB0261CC880132E4B29C71CC88092AC4F30724DC71CC88E4B21C71C988C1F307215971D6D1054BFF221A70BDE8F08100BFC681FF1F70600040FC5F00402D
:406140000A600040064B074A1B7802EBC30253681A7C824286BF03EBC003586900207047A581FF1F247300002DE9F84F424B1A78002A7ED01878414D0138C0B2FFF7E2FF7C
:40618000A8463F4AC3681478007ADFF800C1E4B203EBC0000C2600274FF0010E834268D01A78A24263D11CF80420597891425ED19A7893F8039002F07F0206FB02FA05EB72
:4061C0000A01CF7093F802B009F0030981F804B093F803B005F80AB0B3F804A0A1F808A093F902A0BAF1000F0BDAB9F1010F0CBF4FF007094FF00D0981F8059081F801E003
:4062000009E0B9F1010F0CBF4FF005094FF0090981F805904F704FEA02191A4906FB0282494481F802E0B2F808A0CAF3072A81F800A0B2F808A05FFA8AFA81F801A0B2F815
:4062400006A011495FFA8AFA494481F806A0B2F80690C9F3072981F80790B2F806905FFA89F981F80490D288C2F307224A71083394E7BDE8F88F00BFC381FF1FC681FF1FD6
:40628000B881FF1FFC5F0040706000403282FF1F08B5064B18780138C0B2FFF753FF20B143681B7900EBC300406908BDC381FF1F2DE9F74F00210B46544E0C2707FB01F550
:4062C00001317219092973554FF000049370DFF83C91D3701381937253705371EED128B14B4A4C4B14701C7054705C704A4B1A78002A00F08880187801270138C0B2FFF794
:4063000021FF80464368057ADB79ED0013F0400F424B4FF0000C1A784FF00C0A14BF42F0010202F0FE021A700AFB0796D8F80C40FBB204EB050B5C453AD0A07800F07F01DA
:40634000B94233D13189B4F804E089B2714538BFA6F808E021782E4A94F801E0515C8E4524D13071E178317094F90200E178002801F0030106DA01290CBF07210D217171C6
:40638000012105E001290CBF05210921717100217170A17901F0F701022907D16246194620460193FFF7DAFA8446019B0834C2E70137092FB8D1D8F80C200A35931C154455
:4063C0000C210833AB4209D013F8082C13F80A0C02F07F0201FB02929072F2E7FFF758FF0F4B0122186000230C2000FB0291CB80098901320B44092A9BB2F6D103B0BDE814
:40640000F04FFFF75FBE03B0BDE8F08FC681FF1F3282FF1FA981FF1FC381FF1FC581FF1FBC81FF1F114B1B7903F07F035A1E072A19D80F490C2202FB031291781B0141F0A6
:40644000010191700021D170517841F002015170127912F0800F074A1A4414BF8D2389239370FFF73FBB0020704700BF00600040C681FF1FFC5F004030B4184B1A7902F00A
:406480007F02531E072B25D8154B0C2000FB02339978144C01F0FE0199700021D970120110497F25155511445A7802F0FD025A701A795B78120605D5012B01D1887006E09B
:4064C0000D2303E0012B0CBF082309238B7030BCFFF708BB002030BC704700BF00600040C681FF1FFC5F004010B50D4B0D4C21791878C9B20138C0B2FFF724FE43681B795C
:406500008B4201D2022909D8074A0848535CDBB24354A3780120DBB2535410BD002010BDC381FF1F006000403282FF1FA981FF1F38B58A4A8A4C13780021DBB22180180666
:40654000517840F18D800A2900F20681DFE811F05D00040104010401040104010B0004017E0004018200D3787C49012B09D17D4B1A787D4B03EBC2035B685B6863601223AC
:4065800010E0CB78022B12D18878FFF7DBFD002800F0E280436863606368DA7863689B7843EA02232380BDE83840FFF7BBBBCB78032B26D16D4B00228878D5B2854209D3FD
:4065C000664A91786A4AEE2908BF1346634A917881B106E0187801320028F1D018780344EAE764499278097C914203D16248FFF733FD614B1A78002A00F0AE801A78228068
:4066000018E0BDE8384000F069BB13F0030313D0022B40F0A1802380504B0C211B7903F07F02564B01FB02339A78554BD2B21A7000225A706360B6E702222280514A11788C
:406640004F4AC9B2117053706260ACE7012323804D4BEFE70123238013794C4A1344E9E701390A2978D8DFE801F037774F77067777770A7720009378454ADBB25AE09378C7
:4066800003F0FF0153B9404B1A78914260D01970404B01201870FFF70BFE59E0481EC0B2FFF750FD0028EED156E0FFF71DFF002852D02A4A384913791279DBB2D2B20A709B
:4066C000364A3249D25CCB5C9A4241D0314B01221A70FFF749FD3BE003F00303012B2BD009D3022B38D11D4B9B78002B34D1BDE83840FFF7C1BE194B9B78012B2CD1214A63
:40670000137803F0FD0315E003F00303012B13D008D3022B20D1114B9B78EBB9BDE83840FFF780BE0D4B9B78012B15D1154A137843F0020313700BE0084B1A79012A0BD880
:4067400098781B791649DBB2CA5C22EA0002CA54BDE83840FFF7C6B9002038BD00600040AC81FF1FA581FF1F24730000BE73000010730000A6740000BD82FF1FC681FF1F3A
:406780008681FF1FC581FF1FC381FF1F3282FF1FC281FF1FC081FF1FB881FF1FA981FF1F3582FF1F074B1A78120609D55B78012B06D1054B054A5A6012781A80FFF7B2BA59
:4067C0000020704700600040AC81FF1FE8720000024B1878C0F38010704700BF8F450040024B1B7A584300F04FBA00BFE480FF1F054A00F01F00126800F1100352F82300D3
:4068000042F82310704700BF08ED00E000F01F0000F16040490100F56440C9B201707047134B144A1B78DBB20360127843EA0223114A0360127843EA0243104A036012785E
:4068400043EA026303600E4B0E4A1B78DBB24360127843EA02230C4A4360127843EA02430A4A4360127843EA02634360704700BF0301004904010049EC4600400201004959
:4068800001010049000100490501004906010049044A4001137800F0200003F0DF03034313707047C0510040044A00F00E00137803F0F10318431070704700BF65500040D0
:4068C00008B513490020FFF793FF07210020FFF79DFF104B00221A700F4B72221A70202203F8032C0D490120FFF782FF07210120FFF78CFF0A4B06221A7047221A74022238
:4069000003F8A02C074A137803F0E703137008BDD56A00008881FF1F8B6500406D6B0000296500407964004008B500F0CCF90D4A0D49137843F02003137012F8033C43F037
:40694000100302F8033C094A012313600B7843F010030B70064902230B601360BDE8084000F0B5B99B6500409964004000E100E080E200E010B5054C63781BB9FFF7A0FF26
:4069800001236370BDE81040FFF7CEBF8881FF1F014B1878704700BF79640040014B1870704700BF79640040104B01221A60104A9378D1781079DBB2C9B208B98B420ED0C8
:4069C0000C49C85C0133DBB2402B28BF002393701379C0B233B1064B00221A7102E0064B1878C0B2054B01221A60704780E100E08881FF1F3D82FF1F4B65004000E100E036
:406A00000F4B01221A600F4A9178D378994205D11379002B14BF402000200CE09178D37899422BBFD078D378937890782ABF4030181AC01AC0B2044B01221A60704700BF13
:406A400080E100E08881FF1F00E100E010B5134CE379A279D2B2934202D2511E994201E0991A3F2914BF002101210029F1D193420B4A05D11178490702D40A4B187010BD85
:406A8000402B094928BF0023C8540133E37113789B0742BF054B02221A6010BD8881FF1F69640040496400407D82FF1F00E200E038B5074B5B784BB10139451E4418A54294
:406AC00004D015F8010FFFF7C1FFF8E738BD00BF8881FF1F2DE9F0431C491D4C0A4625461C4E1D481D4FDFF87CE0DFF87CC03378DBB213F01E091EBF90F8008049EA080858
:406B000080F800809B061ED597F800800B785FFA88F8DBB20EF80380237813B101238CF8003013780133DBB2137013783F2B84BF00230B700A4B92F800801B789845D6D1F6
:406B400001232B70D3E7BDE8F08300BF8B81FF1F8C81FF1F686500408881FF1F4B6500408A81FF1F3D82FF1F8D81FF1F0E4AF0B511460E4C0E480F4D0F4E137827789F4252
:406B800011D0037813F004030DD117783F2F88BF13700B78DBB2EB5CDBB233700B780133DBB20B70E9E7F0BD8E81FF1F8F81FF1F696400407D82FF1F49640040F0B52B4B7A
:406BC0002B4E1F78328807F0070792B290424BD0284D2C78E4B26FB932B158B91A7842F040021A703080F0BD30801A7802F0BF021A70F0BD14F0010421D01F4F1F4B0026B9
:406C00004FF0010E1E7087F800E03E7117F8086C06F07F0607F8086C144E3678360700D568B9174E328007221A701A7812F00102FBD12B7803F0FE032B70104B1A702B78CF
:406C40000C4ADD070BD50E4B0029188014BF03220122013B1A701A78D207FCD4F0BD044B188013781C431470F0BD00BF8240004080400040A243004010400040014000401E
:406C80000240004000000000142816D902B4012114381049097811F0C001890904B40E4A515C04BC00BF00BF00BF8841FDD500BF00BF02BC704700BF00BF70F10400FCD5D9
:406CC00070470B050709EFF3108072B6704780F31088704700480040C26C0000104A137803F00303012B0AD0022B0BD113790C2103F07F020B4B01FB02339B7A00E01379D2
:406D0000DBB200E00023084A1268D35C022B03D0032B03D1FFF71EB9FEF72ABD0020704700600040C681FF1FBC81FF1F014B1868704700BF5481FF1F0E4B70B51E460E4C75
:406D40000025E41AA410A54204D056F8253098470135F8E700F0B2FB084B094C1E46E41AA4100025A54204D056F8253098470135F8E770BDC8740000C8740000C874000037
:406D8000D074000010B5431E0A44914204D011F8014B03F8014FF8E710BD03460244934202D003F8011BFAE77047000000000000050014010051004070000000014080085F
:406DC000000901400007001401408006001B0140000100400140000A004C01400002005001402000000000630A20054105020A0060419F209F0060634002950810040002A4
:406E00000C00131003001C02A0010002F580000C80001F06FF60001C0003008000002022000001401205000000EBCE000FFFFFFF0000F0440C001C0001000400040404046B
:406E400000000001000000000000C000000040020000000000000000000000000000000000000000560029202F025000790606002B4854002006084900007F10040E034147
:406E8000180467007F00002060001F4900490006004F00007830000E0707004000002228000000012604030005000E0C14FFFFFF62A0F0410C00000000000212040404043B
:406EC000000000010000000000004002001030100010101200000000000000000000000000000000014500400252004001640040026500400203014001070140120801407D
:406F00003C090140020D014001150140011701406518014048190140241A0140521B01400740014008410140034201400543014001450140024601400847014003480140F1
:406F400002490140024C0140074D014006500140025101407E0261807C40890F883C8B72E208E602E602041808180E0216011A011C101E082202240826102C04300132021B
:406F8000340436183E1558045F0100200120020203220428054008220A220B040E200F0A1020120913011580164017081A801B101E041F4520602306282029202A012B026F
:406FC0003259385039043B014002420844104610482049014A0251405210581059015A44634069056A02730187408B488F02C0E7C2EFC4BFCA0FCC0FCE0FD00CD208D60F5B
:40700000D801E208E602EE08EA0200730147028803B8040305FF08010BFF0C020D360FC91124121013121509162C17F618FF19361BC91C101D1B1F242003245326A428FC1A
:4070400029FF2A032C032DB82F47301F3223333F344035C0368038803A023B083E10541C5604580459045B045F018101840886108705884C8AB08B168C4C8D018E93950535
:407080009623971299209B029E029F08A201A301A694A86BAA94AE03AF17B010B108B23FB307B4C0B530B820B920BA08BB08BE11C006C740C9FFCA07CBFFCC40CD20CEF01F
:4070C000CF05D008D804D904DA04DF01E040E1A8E240E32000100210030205A106200A220C100F56102012091301151116021724181019101A401C801D491E2820042218D6
:407100002340271828102A012B122C202D502E083020328834013754381439403A023B013C803F15482049104D404E0152015F0A6502670A8C1291019202938B9438966022
:407140009A109C029D409E49A010A310A618A727C0F7C2F5C4FFCA39CCFECEFFD204D6C0D8B0EA0201080408050F06020805090F0C2A0D020E550F01102512CA169F1C1C5D
:407180001D041E031F012013220C250126602706289F2A602E1030F03308340F35073A225608580459045B045D905F010020032204800501072408020A220C010E440F11FC
:4071C000102012091301150417011B221E44231824C02612276629042C042E802F503280358536103708382A3B803C403E283F0244044509468047214B304E024F1056403D
:40720000570458805E08628063026C1575A076288504860188809222938194289710980299019A019C019DA09E609F66A030A109A20CA680A727AD02B501B710C0F7C2FD8D
